:100000000C9451010C9482010C9482010C94820195
:100010000C9482010C9482010C9482010C94820154
:100020000C9482010C9482010C9482010C94820144
:100030000C9482010C9482010C9482010C94820134
:100040000C9482010C9482010C9482010C94820124
:100050000C9482010C9482010C9482010C94590935
:100060000C9482010C94CD090C94A3090C94820188
:100070000C9482010C9482010C9482010C948201F4
:100080000C9482010C9482010C9482010C948201E4
:100090000C9482010C9482010C9482010C9435081A
:1000A0000C9482010C9482010C9482010C948201C4
:1000B0000C9482010C9482010C9482010C948201B4
:1000C0000C9482010C9482010C9482010C948201A4
:1000D0000C9482010C9482010C9482010C94820194
:1000E0000C9482010C9425030C9410040C94C60209
:1000F0000C941E040C94D5020C94F9030C94220465
:100100000C940A040C94F7020C9450020C946F05A2
:100110000C94D5070C9406040C9497020C9441029D
:100120000C943E020C9484060C94E9020C945D0538
:100130000C9463020C9400040C94030A0C942C0499
:100140000C9426040C946A020C9440020C9418043B
:100150000C9414040C943F020C94EB030C9465056E
:100160000C9430040C94FD030C94F5030C9472036E
:100170000C94F1030C9461050C942B040C948306ED
:1001800000002100240027002A002D003000330049
:1001900001010000040107010A01000022002500FE
:1001A00028002B002E003100340002010000050160
:1001B00008010B01000020002300260029002C006C
:1001C0002F003200000100000301060109010505AE
:1001D0000505070508080808020202020A0A0808BD
:1001E00004040404010101010101010103030303EB
:1001F00003030303040707070C0C0C0C0C0C0C0C7A
:100200000202020206060606060606060B0B0B0B8A
:100210000B0B0B0B010210202008081020401020AF
:1002200040800201020108040201010204081020BA
:1002300040808040201008040201800402018040B8
:100240002010080402010804020101020408102021
:100250004080010204081020408000000A0B0209BF
:100260000C0D0E0807030401000000000000000050
:10027000000000000000000000000000000000007E
:10028000000000000000121110000000000000003B
:10029000000000000000000000000000000000005E
:1002A000030A11241FBECFEFD1E2DEBFCDBF00E0B5
:1002B0000CBF12E0A0E0B2E0ECEFFDE100E00BBF0C
:1002C00002C007900D92AC3CB107D9F725E0ACEC29
:1002D000B2E001C01D92AD31B207E1F711E0C1E516
:1002E000D1E000E006C021970109802FFE010E94A5
:1002F000F40EC035D10780E00807A9F70E94440B2F
:100300000C94FC0E0C94000096E0899FD0011124FF
:10031000A255BB4F90967C936E935F9791E0919618
:100320009C939197E0911B05F0911C0590911A0503
:10033000992339F0309751F0811108C08091CA0497
:100340001994309719F05C968C91FACF0895CF925A
:10035000DF92EF92FF920F931F9396E0899FF00137
:100360001124E255FB4F11A2278D30A12130310518
:1003700051F178F02230310509F451C023303105B4
:1003800009F452C01F910F91FF90EF90DF90CF9032
:1003900008956623B9F361E070E00E9484012FB7ED
:1003A000F89480918B0390918C03A0918D03B09170
:1003B0008E032FBF8093060590930705A093080531
:1003C000B0930905DFCF9FB7F894C0908B03D0900E
:1003D0008C03E0908D03F0908E039FBF0091060583
:1003E000109107052091080530910905C01AD10A1E
:1003F000E20AF30A009118051091190530E020E097
:100400000C151D052E053F0550F462E070E01F91AC
:100410000F91FF90EF90DF90CF900C9484016111C9
:10042000B1CF63E070E0F3CF70E060E0F0CF2091F7
:100430003F03260F3327331F21323105ECF420917F
:100440006503FC0190E080E0243069F082E00895CB
:10045000A0913F032191AC01435E5C4FA40FB52FE7
:10046000B11D2C930196861798F380913F03680F76
:1004700060933F0380E0089581E008950895089512
:100480000895E091140380911303E81730F4F0E02D
:10049000ED50FD4F808190E008958FEF9FEF08951C
:1004A00090911403809113032FEF3FEF981748F4B6
:1004B000E92FF0E0ED50FD4F208130E09F5F9093F9
:1004C0001403C90108958091130390911403891BAB
:1004D000990B0895CF92DF92EF92FF920F931F93A3
:1004E000CF93DF937C01CB018A012091F20222237A
:1004F00089F0EB016B01C40ED51ECC15DD0569F04A
:100500006991D701ED91FC910190F081E02DC70137
:100510001995F3CF642F0E941702C801DF91CF9184
:100520001F910F91FF90EF90DF90CF900895CF93A0
:10053000DF931F92CDB7DEB769832091F2022223A9
:10054000F9F020911503203258F021E030E0FC0151
:100550003383228390E080E00F90DF91CF91089564
:1005600080911603E82FF0E0EE52FD4F99819083C1
:100570008F5F809316038093150381E090E0ECCFAA
:1005800061E0CE0101960E941702F7CFFC01538D66
:10059000448D252F30E0842F90E0821B930B54175D
:1005A00010F0CF96089501970895FC01918D828DEA
:1005B000981761F0A28DAE0FBF2FB11D5D968C9183
:1005C000928D9F5F9F73928F90E008958FEF9FEFC2
:1005D0000895FC01918D828D981731F0828DE80F7E
:1005E000F11D858D90E008958FEF9FEF0895FC0138
:1005F000918D228D892F90E0805C9F4F821B910905
:100600008F7399270895FC01A48DA80FB92FB11DF0
:10061000A35ABF4F2C91848D90E001968F73992738
:10062000848FA689B7892C93A089B1898C91837016
:1006300080648C93938D848D981306C00288F3890F
:10064000E02D80818F7D80830895EF92FF920F933C
:100650001F93CF93DF93EC0181E0888F9B8D8C8D6E
:1006600098131AC0E889F989808185FF15C09FB762
:10067000F894EE89FF896083E889F9898081837025
:10068000806480839FBF81E090E0DF91CF911F91D4
:100690000F91FF90EF900895F62E0B8D10E00F5FF5
:1006A0001F4F0F731127E02E8C8D8E110CC00FB6CB
:1006B00007FCFACFE889F989808185FFF5CFCE0163
:1006C0000E940303F1CFEB8DEC0FFD2FF11DE35AD8
:1006D000FF4FF0829FB7F8940B8FEA89FB898081E6
:1006E0008062CFCFCF93DF93EC01888D8823B9F060
:1006F000AA89BB89E889F9898C9185FD03C080812D
:1007000086FD0DC00FB607FCF7CF8C9185FFF2CFA9
:10071000808185FFEDCFCE010E940303E9CFDF91F9
:10072000CF9108958BE993E00E94F70221E0892B95
:1007300009F420E0822F089580E090E0892B29F0D1
:100740000E94920381110E94000080E090E0892BBA
:1007500049F080E090E0892B29F00E94000081118F
:100760000E94000080E090E0892B49F080E090E05A
:10077000892B29F00E94000081110E94000080E076
:1007800090E0892B49F080E090E0892B29F00E94CD
:10079000000081110C94000008958150823108F00E
:1007A0005AC0E82FF0E08827E752FC4F8F4F0C9497
:1007B000F40EF903FD03EB03F103F5032B0400042E
:1007C00006040A041004140418041E0422042B0452
:1007D00026042C043004809180008F778093800061
:1007E0000895809180008F7DF9CF80918000877F70
:1007F000F5CF84B58F7784BD089584B58F7DFBCF09
:100800008091B0008F778093B00008958091B00000
:100810008F7DF9CF809190008F778093900008951D
:10082000809190008F7DF9CF80919000877FF5CFE8
:100830008091A0008F778093A00008958091A00000
:100840008F7DF9CF8091A000877FF5CF8091200127
:100850008F77809320010895809120018F7DF9CFBB
:1008600080912001877FF5CFCF93DF93282F30E051
:10087000F901E65AFD4F8491F901EC5EFD4FD491E8
:10088000F901E253FE4FC491CC23A1F081110E94E3
:10089000CD03EC2FF0E0EE0FFF1FEC54FE4FA591BF
:1008A000B491EC91ED2381E090E009F480E0DF91D8
:1008B000CF91089580E090E0FACF1F93CF93DF931C
:1008C000282F30E0F901E65AFD4F8491F901EC5EE2
:1008D000FD4FD491F901E253FE4FC491CC23A9F00E
:1008E000162F81110E94CD03EC2FF0E0EE0FFF1FB9
:1008F000E656FE4FA591B4918FB7F894EC91111183
:1009000008C0D095DE23DC938FBFDF91CF911F917C
:100910000895DE2BF8CF1092650381E08093670382
:100920001092660361E084E10E945D0461E085E16C
:100930000E945D04E9EBF0E080818E7F80838081FE
:100940008D7F808388E48093B80085E48093BC0029
:100950000895CF93DF9391E090931C038823B9F01F
:10096000C091B800D091BA008091BC008A7B80937E
:10097000BC0060E084E10E945D0460E085E10E94CB
:100980005D040E948B04D093BA00C093B800DF913D
:10099000CF910895CF93DF9390E0FC01EC5EFD4F83
:1009A000249182539E4FFC0184918823C9F090E0EA
:1009B000880F991FFC01E058FE4FA591B491FC01EE
:1009C000E656FE4FC591D49161110DC09FB7F894C2
:1009D0008C91209582238C938881282328839FBF24
:1009E000DF91CF910895623051F49FB7F8943C9114
:1009F000822F809583238C93E8812E2BEFCF8FB7A6
:100A0000F894EC912E2B2C938FBFEACF3FB7F8943C
:100A10008091CE029091CF02A091D002B091D102EC
:100A200026B5A89B05C02F3F19F00196A11DB11D49
:100A30003FBFBA2FA92F982F8827BC01CD01620F85
:100A4000711D811D911D42E0660F771F881F991F40
:100A50004A95D1F708958F929F92AF92BF92CF920D
:100A6000DF92EF92FF924B015C010E9406056B0141
:100A70007C010E9406056C197D098E099F09683E5C
:100A8000734081059105A8F321E0821A9108A1081D
:100A9000B10888EEC80E83E0D81EE11CF11C811459
:100AA0009104A104B10429F7FF90EF90DF90CF905B
:100AB000BF90AF909F908F900895862F642F0C94D5
:100AC000CA04862F642F0C945D04862F0C94340482
:100AD000DC01ED91FC910190F081E02D1994AF9231
:100AE000BF92CF92DF92EF92FF920F931F93CF931B
:100AF000DF936C017B018B01040F151FEB015E017D
:100B0000AE18BF08C017D10759F06991D601ED9111
:100B1000FC910190F081E02DC6011995892B79F7A0
:100B2000C501DF91CF911F910F91FF90EF90DF9062
:100B3000CF90BF90AF900895CF92DF92EF92FF9247
:100B40000F931F93CF93DF93FC01C48121E0209387
:100B5000F202C093CC021092160310921503848502
:100B6000682B8FE893E00E949702D0911503D13251
:100B700008F092C00E9406056B017C01809165031C
:100B8000811165C082E08093650381E080936703F3
:100B90008FEF8093640310928903D0938803A2EDB2
:100BA000B2E0E8E6F3E080E0D81385C010928A0353
:100BB00080918A03CC0FC82BC0938A03809166036F
:100BC000813009F07CC0109266030E9406056B011B
:100BD0007C0180918A038093BB00809118039091DF
:100BE0001903A0911A03B0911B03892B8A2B8B2B1D
:100BF00099F00E94060500911803109119032091A5
:100C00001A0330911B036C197D098E099F09061781
:100C1000170728073907E0F18091BC0083FDD9CF81
:100C200085EC8093BC000E9406056B017C018091DD
:100C30006503823009F445C0809164038F3F61F100
:100C400080916403803241F18091640325C08091DA
:100C5000180390911903A0911A03B0911B03892BDB
:100C60008A2B8B2B09F48ACF0E940605009118036A
:100C70001091190320911A0330911B036C197D09FF
:100C80008E099F09061717072807390708F076CF3E
:100C9000809117030E94A904109216031092150365
:100CA0001092F202DF91CF911F910F91FF90EF9080
:100CB000DF90CF9008959D9191938F5F75CF85EED2
:100CC000B0CF8091180390911903A0911A03B091AD
:100CD0001B03892B8A2B8B2B09F4A9CF0E940605B5
:100CE000009118031091190320911A0330911B03EE
:100CF0006C197D098E099F09061717072807390700
:100D000008F095CFC5CF089590E080E00895CF9288
:100D1000DF92EF92FF920F931F93CF93DF931F9277
:100D20001F92CDB7DEB769834A83880F991F009160
:100D3000990410919A04000F111FE3E4F4E09F015D
:100D4000235434402017310714F41192F8CF29812D
:100D5000FC01ED5BFB4F21838A81808360E0809101
:100D600097040E945D041016110604F50150110944
:100D7000F801ED5BFB4FE080D0909504C0909304A8
:100D800088E0F82E6E2D661F6627661F8C2D0E9448
:100D90005D04EE0C61E08D2D0E945D0460E08D2D00
:100DA0000E945D04FA94F110EDCFDDCF61E08091F7
:100DB00097040F900F90DF91CF911F910F91FF90AB
:100DC000EF90DF90CF900C945D04EF92FF920F9321
:100DD0001F93CF937C018C0183E0000F111F8A9534
:100DE000E1F70D5A1B4FC1E0F80111928F0140E06D
:100DF0006C2FC7010E948706CF5FC930A9F7CF913A
:100E00001F910F91FF90EF9008956F927F928F92B4
:100E10009F92AF92BF92CF92DF92EF92FF920F9389
:100E20001F93CF93DF938C017B016A01912C812C5E
:100E300080E8A82EB12CC501082C02C09595879595
:100E40000A94E2F7682E782E7094D0E0C0E080918A
:100E5000990490919A04C230D1051CF48016910631
:100E6000C4F09E01235031092230310560F48E1404
:100E70009F047CF018161906DCF4FE01ED5BFB4FB5
:100E8000408947210EC0C630D105A4F38C149D04BF
:100E90008CF71816190664F4FE01ED5BFB4F4089D0
:100EA0004629408B6C2F6F5F90E080E00E948706A0
:100EB0002196C830D10559F68FEF881A980A88E034
:100EC0008816910409F0B7CFDF91CF911F910F9150
:100ED000FF90EF90DF90CF90BF90AF909F908F905A
:100EE0007F906F9008950F931F93CF938C01C62F1F
:100EF0000E949C056C2F6460C8010E949C056C2FA9
:100F00006B7FC8010E949C0583EC90E00197F1F78C
:100F1000CF911F910F9108950F931F93CF93DF935C
:100F20008C01D62FC42F607F642B0E94730780E151
:100F3000D89FB00111246C2BC801DF91CF911F9174
:100F40000F910C947307CF93DF9300D000D01F92C2
:100F50001F92CDB7DEB798E0E8E1F2E0DE0111962E
:100F600001900D929A95E1F79091A904961710F4CB
:100F70006FEF690F262F30E0220F331F41E050E062
:100F80004C0F5D1F240F351FF9016081680F6068E9
:100F900040E081EA94E028960FB6F894DEBF0FBED9
:100FA000CDBFDF91CF910C948C0741E00E948C075C
:100FB00081E090E00895FC0101900020E9F731976D
:100FC000AF01481B590BBC0181EA94E00C946F05FA
:100FD000CF93DF93682F8BE993E00E946805EC01C3
:100FE00042E050E06AE572E08BE993E00E946F0511
:100FF0008C0F9D1FDF91CF91089585ED8093BC00EC
:101000008091180390911903A0911A03B0911B03CA
:101010000796A11DB11D23E0B695A79597958795D5
:101020002A95D1F72091BC0024FD03C010926503DE
:101030000895409118035091190360911A0370911B
:101040001B03452B462B472B69F30097A105B105E0
:1010500041F02AE22A95F1F700C00197A109B109F0
:10106000E1CF809117030C94A9041F920F920FB641
:101070000F9211240BB60F922F933F934F935F93D0
:101080006F937F938F939F93AF93BF93EF93FF9350
:101090008091B900887F803609F44DC008F040C0C7
:1010A000883209F4A9C028F5803109F49DC0C8F43C
:1010B000882309F4FBC0883009F496C0FF91EF91B2
:1010C000BF91AF919F918F917F916F915F914F9160
:1010D0003F912F910F900BBE0F900FBE0F901F905E
:1010E0001895883109F488C0803241F780936403F1
:1010F00014C0803409F49DC040F48033B9F38833C0
:10110000E9F68093640385ECB0C0803509F485C0AE
:10111000883509F496C0883489F60E94FD07CECF41
:10112000883909F48CC038F5883729F050F48836AE
:1011300011F0803719F683E0809365031092630302
:1011400057C0883809F47BC0803919F0803809F01D
:10115000B5CF80916303803208F071C0E0916303E2
:1011600081E08E0F809363038091BB00F0E0ED5B24
:10117000FC4F80833DC0803B39F0E0F4803A09F4B5
:1011800079C0883A09F09ACF84E080936503109281
:10119000400310923F03E0913D03F0913E03199507
:1011A00080913F0381110FC081E080933F03109233
:1011B0001D0309C0803C09F4A6CF883C09F4A3CFE5
:1011C000883B09F07BCFE091400381E08E0F809354
:1011D0004003F0E0E35EFC4F80818093BB00909180
:1011E000400380913F0329C080918A038093BB0014
:1011F00085EC8093BC0062CF909189038091880335
:10120000981758F5E091890381E08E0F8093890348
:10121000F0E0E859FC4F8081E9CFE091890381E05B
:101220008E0F809389038091BB00F0E0E859FC4F5A
:10123000808390918903809188039817C8F285E88C
:10124000D8CFE091890381E08E0F8093890380914C
:10125000BB00F0E0E859FC4F808380916703811167
:101260005CCF81E08093660384EA8093BC00109297
:10127000650324CF85EC8093BC00109265038091B8
:101280006303803230F4E0916303F0E0ED5BFC4FE8
:1012900010826091630370E0E0914103F09142039A
:1012A00083E493E019951092630308CF10926403CE
:1012B00034CF1F920F920FB60F9211242F933F93AA
:1012C0008F939F93AF93BF9380918B0390918C03E7
:1012D000A0918D03B0918E033091CD0223E0230FB6
:1012E0002D3758F50196A11DB11D2093CD02809395
:1012F0008B0390938C03A0938D03B0938E03809106
:10130000CE029091CF02A091D002B091D10201966D
:10131000A11DB11D8093CE029093CF02A093D00265
:10132000B093D102BF91AF919F918F913F912F9137
:101330000F900FBE0F901F90189526E8230F02966E
:10134000A11DB11DD2CF1F920F920FB60F92112483
:101350000BB60F922F933F934F935F936F937F93AF
:101360008F939F93AF93BF93EF93FF938BE993E09A
:101370000E940303FF91EF91BF91AF919F918F91D5
:101380007F916F915F914F913F912F910F900BBE85
:101390000F900FBE0F901F9018951F920F920FB6CF
:1013A0000F9211240BB60F922F938F939F93EF936D
:1013B000FF93E091AB03F091AC038081E091B10326
:1013C000F091B20382FD1DC090818091B4038F5FC4
:1013D0008F732091B503821741F0E091B403F0E0E0
:1013E000E556FC4F958F8093B403FF91EF919F9149
:1013F0008F912F910F900BBE0F900FBE0F901F90EB
:1014000018958081F2CFCF93DF93109292031092C0
:10141000910388EE93E0A0E0B0E080939303909373
:101420009403A0939503B093960324E232E03093A3
:10143000900320938F0310929E0310929D0380933C
:101440009F039093A003A093A103B093A20386E30C
:1014500092E090939C0380939B0385EC90E09093A3
:10146000A8038093A70384EC90E09093AA03809351
:10147000A90380EC90E09093AC038093AB0381ECE4
:1014800090E09093AE038093AD0382EC90E0909354
:10149000B0038093AF0386EC90E09093B203809307
:1014A000B1031092B4031092B5031092B6031092D8
:1014B000B7031092B0041092B4041092B3041092C7
:1014C000B50484E592E09093AF048093AE04EAEC17
:1014D000F4E086E095E0108214821382158236963D
:1014E0008E179F07C1F784E092E0909311058093D7
:1014F000100580E092E0909313058093120584E03C
:10150000809314058093150528E032E030930F0591
:1015100020930E05CAE0D0E0D0931705C0931605BE
:1015200024EF31E0309319052093180510921C0523
:1015300010921B0510920A0510920B0510920C05D3
:1015400010920D0510921A051092A4041092A30493
:1015500028E432E03093A2042093A1041092AA045C
:1015600097E29093A50494E19093AB048093AC042C
:101570001092AD04D0939404C09393048CE090E057
:1015800090939604809395048BE090E09093980458
:101590008093970481E090E090939A04809399045B
:1015A00061E08AE00E94CA0461E0809195040E9493
:1015B000CA0461E0809197040E94CA0461E08091AE
:1015C00097040E945D04D0939404C0939304E3E5D0
:1015D000F4E083E994E011928E179F07E1F7D0E0E1
:1015E000C0E08091990490919A04C817D90774F5C6
:1015F00040E06FE0CE010E948706809199049091AF
:101600009A04C817D9072CF447E06BE0CE010E947A
:10161000870640E069E0CE010E9487068091990428
:1016200090919A04C817D9071CF4CE010E94E506D0
:101630008091990490919A04C817D9072CF440E03E
:101640006CE0CE010E9487062196CBCF83E090E02C
:1016500090933C0480933B0485E090E090933E049B
:1016600080933D0487E090E09093400480933F0492
:1016700081E080933A0481E090E090933904809374
:101680003804DF91CF910895789484B5826084BD49
:1016900084B5816084BD85B5826085BD85B5816076
:1016A00085BD80916E00816080936E0010928100F4
:1016B00080918100826080938100809181008160AF
:1016C0008093810080918000816080938000809170
:1016D000B10084608093B1008091B00081608093FC
:1016E000B000809191008260809391008091910080
:1016F0008160809391008091900081608093900040
:101700008091A10082608093A1008091A1008160FE
:101710008093A1008091A00081608093A0008091BF
:101720002101826080932101809121018160809359
:1017300021018091200181608093200180917A00B5
:10174000846080937A0080917A00826080937A002E
:1017500080917A00816080937A0080917A0080681D
:1017600080937A001092C100109214031092130318
:1017700010921603109215030E948B048EE392E0E0
:1017800090933E0380933D038FE392E09093420356
:10179000809341031092A6048091AC04823018F02B
:1017A00098E09093A6048093A90462E370E080E03F
:1017B00090E00E942B056091AD0481EA94E00E94C4
:1017C0009C0568EE73E080E090E00E942B0560E3EA
:1017D00081EA94E00E947307CBE4D6E4CE0101973E
:1017E000F1F760E381EA94E00E9473072197F1F733
:1017F00060E381EA94E00E94730783E592E0019739
:10180000F1F760E281EA94E00E9473076091A60418
:10181000606240E081EA94E00E948C0784E080935B
:10182000A70440E06CE081EA94E00E948C0740E06D
:1018300061E081EA94E00E948C078BE39FE10197CD
:10184000F1F78091AA04882321F060E080E00E94F3
:10185000A30782E08093A80440E066E081EA94E078
:101860000E948C0740E062E081EA94E00E948C07CD
:101870008BE39FE10197F1F788E08093AD0460E08E
:1018800081EA94E00E949C0560E080E00E94A3074A
:101890008DE592E00E94DB0761E080E00E94A307F3
:1018A00082E792E00E94DB0762E080E00E94A307EB
:1018B0008BE792E00E94DB078091990490919A0453
:1018C0001816190634F441E06CE090E080E00E94C4
:1018D00087068091990490919A041816190634F499
:1018E00048E06AE090E080E00E94870680919904D9
:1018F00090919A041816190624F490E080E00E9452
:10190000E50640913F045091400460913D04709180
:101910003E0480913B0490913C0490939C048093FE
:101920009B0470939E0460939D045093A004409385
:101930009F040E940507412C512C320143948824B6
:101940008A94982CC2E0D0E021E020931A058FB74A
:10195000F89440918B0350918C0360918D037091AA
:101960008E038FBF80910A0590910B05A0910C0505
:10197000B0910D05481B590B6A0B7B0B8091160526
:1019800090911705B0E0A0E084179507A607B70768
:1019900008F018C110E080911405181760F4E09168
:1019A0001005F0911105E10FF11D62E080810E94A8
:1019B000CA041F5FF0CF312C80911505381608F04E
:1019C00061C0E32CF12CE0911205F0911305EE0DAE
:1019D000FF1D61E080810E94CA04E0911205F09130
:1019E0001305EE0DFF1D60E080810E945D04D301B0
:1019F000C201032C04C0880F991FAA1FBB1F0A94A1
:101A0000D2F75C016C01C094D094212C8091140514
:101A1000281608F5022D10E0E0911005F09111054F
:101A2000E00FF11F80810E9434040C5F1F4F000FF4
:101A3000111FF801E255FB4F892B41F48081918100
:101A40008A299B29918380832394E0CF808191818F
:101A50008C219D21F7CFE0911205F0911305EE0D39
:101A6000FF1D61E080810E945D04809112059091CC
:101A70001305E80EF91E60E0F70180810E94CA0498
:101A800033949ACF3EEAE32E34E0F32E8701F80137
:101A9000878D90A1892B21F4148E968E858E11A2AC
:101AA0000A5F1F4FF4E00A3E1F0789F7B12C8091AF
:101AB0001405B81608F053C0A12CCB2CD12CCC0C9B
:101AC000DD1CC6018A549B4F6C0120911505A2169E
:101AD00008F043C0F601608171810A2C02C076953E
:101AE00067950A94E2F7B29E900111242A0D311DE8
:101AF000EEEAF4E080E0458D568D2417350709F4B1
:101B000071C18F5F36968A30B1F760FF24C0EEEA6C
:101B1000F4E090E080E0448D411118C0E0910E05A2
:101B2000F0910F05E20FF31F408156E0589FF0013E
:101B3000599FF00D1124E255FB4F448F368F258FAE
:101B400010A2178E61E00E94A70105C0019636968B
:101B50008A30910501F7A394B8CFB394A8CF80E061
:101B6000F70191A19111892FF6E0EF0EF11C0E15EE
:101B70001F05B1F79FB7F89440918B0350918C03E8
:101B800060918D0370918E039FBF40930A0550931F
:101B90000B0560930C0570930D05882399F08091D7
:101BA000CF04882379F0C090CD04D090CE0421E0FA
:101BB000C216D10439F4B090CA04B11006C00E9414
:101BC0009C03C2CE10921A05FACF8B2D0E94E80713
:101BD00063E080E00E94A3076B2D81EA94E00E94FD
:101BE000680580913804909139048130910509F09D
:101BF00059C052E4B51639F183E4B81681F191E485
:101C0000B91239C080913B0490913C041816190612
:101C100094F51092420410924104D0933904C09379
:101C2000380462E080E00E94A30785EA92E00E9407
:101C3000DB0762E081E10E94A3076B2D81EA94E05B
:101C40000E946805BCCF20913D0430913E041216DD
:101C500013068CF49093420480934104DECF80916C
:101C60003F0490914004181619062CF4D0934204B6
:101C7000C0934104D2CF62E080E00E94A30780E9D4
:101C800092E00E94DB0768EE73E080E090E00E9443
:101C90002B0562E080E00E94A3078BE792E00E94A0
:101CA000DB078DCF029709F08ACF0B2D0B2C000C90
:101CB000110B7801E0E3EE1AF1088B2D0E94E80782
:101CC000015311090730110508F06EC0E09141047D
:101CD000F0914204EE0FFF1FE85CFB4F838194817B
:101CE0008E159F050CF460C08E199F099483838321
:101CF000D0923904C092380480913A04F1E08F27E1
:101D000080933A04C0903F04D0904004E0903D049A
:101D1000F0903E0400913B0410913C0483E0A82E17
:101D2000B12CA601B701C8010E9405076EE571E05C
:101D300080E090E00E942B0540919F045091A00408
:101D400060919D0470919E0480919B0490919C04ED
:101D50000E9405076EE571E080E090E00E942B058F
:101D600021E0A21AB108E9F610939C0400939B04A9
:101D7000F0929E04E0929D04D092A004C0929F0431
:101D8000A601B701C8010E94050761E087E00E9433
:101D9000A30780913A0461E3811101C062E381EA03
:101DA00094E00E94680575CF62E080E00E94A3077E
:101DB00087EB92E00E94DB076CED75E080E090E03D
:101DC0000E942B0562E080E00E94A30785EA92E072
:101DD0000E94DB0762E081E10E94A3076091410459
:101DE0006F5B2CCF6170AFCEEE0FFF1F881F8BBFD4
:0C1DF0000790F691E02D1994F894FFCFB5
:101DFC0005040302090807063132334134353642F3
:101E0C00373839432A302344000040001400540072
:101E1C000000000097026A0284064002630250022E
:101E2C0041020000000025036F05C6027203F70291
:101E3C00D502E90200000000D5076F058406830671
:101E4C00000000005D05610565050D0A002A2A2ABF
:101E5C002A204E696D2047616D652121202A2A2A8E
:101E6C002A00504C4159455220310043686F6F7322
:101E7C00652070696C652028412C422C43293A005E
:101E8C004E6F7420612076616C69642070696C659A
:101E9C00212020200023206F662070696563657304
:101EAC002066726F6D20004E6F7420612076616C1D
:0C1EBC006964206E756D62657221200063
:00000001FF
