:100000000C9445010C9476010C9476010C947601C5
:100010000C9476010C9476010C9476010C94760184
:100020000C9476010C9476010C9476010C94760174
:100030000C9476010C9476010C9476010C94760164
:100040000C9476010C9476010C9476010C94760154
:100050000C9476010C9476010C9476010C941A0899
:100060000C9476010C9476010C9476010C94760134
:100070000C9476010C9476010C9476010C94760124
:100080000C9476010C9476010C9476010C94760114
:100090000C9476010C9476010C9476010C94F6067F
:1000A0000C9476010C9476010C9476010C947601F4
:1000B0000C9476010C9476010C9476010C947601E4
:1000C0000C9476010C9476010C9476010C947601D4
:1000D0000C9476010C9476010C9476010C947601C4
:1000E0000C9476010C94D8020C94B8060C941D0361
:1000F0000C944A040C948B020C9432020C9401036D
:100100000C945E020C94F3020C9469050C94F702B3
:100110000C944E040C9434020C9457020C940B0370
:100120000C9418030C94EA020C9433020C940F0301
:100130000C9464080C9405030C94DE020C946A057C
:100140000C94ED020C94FD020C9452040C94E20207
:100150000C9435020C94E6020C9419030C941303CE
:100160000C9455040C944402000021002400270044
:100170002A002D00300033000101000004010701B6
:100180000A0100002200250028002B002E0031006B
:10019000340002010000050108010B0100002000ED
:1001A0002300260029002C002F003200000100004F
:1001B00003010601090105050505070508080808EA
:1001C000020202020A0A08080404040401010101EF
:1001D00001010101030303030303030304070707EA
:1001E0000C0C0C0C0C0C0C0C02020202060606068F
:1001F000060606060B0B0B0B0B0B0B0B010210205C
:10020000200808102040102040800201020108044C
:1002100002010102040810204080804020100804E0
:100220000201800402018040201008040201080439
:10023000020101020408102040800102040810207D
:10024000408000000A0B02090C0D0E080703040190
:10025000000000000000000000000000000000009E
:10026000000000000000000000000000000012116B
:10027000100000000000000000000000000000006E
:100280000000000000000000640811241FBECFEF32
:10029000D1E2DEBFCDBF00E00CBF12E0A0E0B2E0D3
:1002A000EAE5F8E100E00BBF02C007900D92AE3521
:1002B000B107D9F724E0AEE5B2E001C01D92A73046
:1002C000B207E1F711E0C5E4D1E000E006C02197F4
:1002D0000109802FFE010E94230CC434D10780E065
:1002E0000807A9F70E944C090C942B0C0C940000F1
:1002F00096E0899FD0011124A856BC4F90967C931C
:100300006E935F9791E091969C939197E09105048D
:10031000F091060490910404992339F0309751F03C
:10032000811108C08091B4031994309719F05C963C
:100330008C91FACF0895CF92DF92EF92FF920F93B4
:100340001F9396E0899FF0011124E856FC4F11A2FB
:10035000278D30A12130310551F178F0223031055F
:1003600009F451C02330310509F452C01F910F9197
:10037000FF90EF90DF90CF9008956623B9F361E08E
:1003800070E00E9478012FB7F89480911D0390913E
:100390001E03A0911F03B09120032FBF8093F00391
:1003A0009093F103A093F203B093F303DFCF9FB7D1
:1003B000F894C0901D03D0901E03E0901F03F090AE
:1003C00020039FBF0091F0031091F1032091F203ED
:1003D0003091F303C01AD10AE20AF30A0091020431
:1003E0001091030430E020E00C151D052E053F059B
:1003F00050F462E070E01F910F91FF90EF90DF905A
:10040000CF900C9478016111B1CF63E070E0F3CF2D
:1004100070E060E0F0CF2091D102260F3327331F28
:1004200021323105ECF42091F702FC0190E080E0EC
:10043000243069F082E00895A091D1022191AC01AD
:1004400041555D4FA40FB52FB11D2C930196861712
:1004500098F38091D102680F6093D10280E00895F3
:1004600081E00895089508950895E091A60280918D
:10047000A502E81730F4F0E0EB57FD4F808190E0E3
:1004800008958FEF9FEF08959091A6028091A502A5
:100490002FEF3FEF981748F4E92FF0E0EB57FD4FAF
:1004A000208130E09F5F9093A602C901089580915A
:1004B000A5029091A602891B990B0895CF92DF9215
:1004C000EF92FF920F931F93CF93DF937C01CB01A9
:1004D0008A0120918402222389F0EB016B01C40E72
:1004E000D51ECC15DD0569F06991D701ED91FC9120
:1004F0000190F081E02DC7011995F3CF642F0E9480
:100500000B02C801DF91CF911F910F91FF90EF90E7
:10051000DF90CF900895CF93DF931F92CDB7DEB7D2
:100520006983209184022223F9F02091A7022032CE
:1005300058F021E030E0FC013383228390E080E03A
:100540000F90DF91CF9108958091A802E82FF0E0FD
:10055000EC59FD4F998190838F5F8093A80280931F
:10056000A70281E090E0ECCF61E0CE0101960E940D
:100570000B02F7CF8150823108F05AC0E82FF0E02B
:100580008827EA53FD4F8F4F0C94230CE602EA02B2
:10059000D802DE02E2021803ED02F302F702FD02C6
:1005A000010305030B030F031803130319031D03B2
:1005B000809180008F7780938000089580918000E3
:1005C0008F7DF9CF80918000877FF5CF84B58F77BD
:1005D00084BD089584B58F7DFBCF8091B0008F7767
:1005E0008093B00008958091B0008F7DF9CF809105
:1005F00090008F77809390000895809190008F7D78
:10060000F9CF80919000877FF5CF8091A0008F7700
:100610008093A00008958091A0008F7DF9CF8091F4
:10062000A000877FF5CF809120018F7780932001F4
:100630000895809120018F7DF9CF80912001877FDF
:10064000F5CFCF93DF93282F30E0F901EE5BFD4F1C
:100650008491F901E450FE4FD491F901EA54FE4F20
:10066000C491CC23A1F081110E94BA02EC2FF0E0DA
:10067000EE0FFF1FE456FE4FA591B491EC91ED23D0
:1006800081E090E009F480E0DF91CF91089580E06F
:1006900090E0FACF1F93CF93DF93282F30E0F9013A
:1006A000EE5BFD4F8491F901E450FE4FD491F901C6
:1006B000EA54FE4FC491CC23A9F0162F81110E9459
:1006C000BA02EC2FF0E0EE0FFF1FEE57FE4FA591A0
:1006D000B4918FB7F894EC91111108C0D095DE2336
:1006E000DC938FBFDF91CF911F910895DE2BF8CF60
:1006F0001092F70281E08093F9021092F80261E013
:1007000084E10E944A0361E085E10E944A03E9EB2B
:10071000F0E080818E7F808380818D7F808388E47C
:100720008093B80085E48093BC000895CF93DF9355
:1007300091E09093AE028823B9F0C091B800D091B7
:10074000BA008091BC008A7B8093BC0060E084E1A9
:100750000E944A0360E085E10E944A030E947803F8
:10076000D093BA00C093B800DF91CF910895CF9392
:10077000DF9390E0FC01E450FE4F24918A549E4F99
:10078000FC0184918823C9F090E0880F991FFC0137
:10079000E859FE4FA591B491FC01EE57FE4FC5916B
:1007A000D49161110DC09FB7F8948C91209582234C
:1007B0008C938881282328839FBFDF91CF91089550
:1007C000623051F49FB7F8943C91822F8095832337
:1007D0008C93E8812E2BEFCF8FB7F894EC912E2BD2
:1007E0002C938FBFEACF3FB7F8948091600290912D
:1007F0006102A0916202B091630226B5A89B05C078
:100800002F3F19F00196A11DB11D3FBFBA2FA92F8F
:10081000982F8827BC01CD01620F711D811D911D8C
:1008200042E0660F771F881F991F4A95D1F70895F8
:100830008F929F92AF92BF92CF92DF92EF92FF92F0
:100840004B015C010E94F3036B017C010E94F303E6
:100850006C197D098E099F09683E734081059105D9
:10086000A8F321E0821A9108A108B10888EEC80E09
:1008700083E0D81EE11CF11C81149104A104B10491
:1008800029F7FF90EF90DF90CF90BF90AF909F90AF
:100890008F900895862F642F0C94B703862F642FB2
:1008A0000C944A03862F0C942103AF92BF92CF92EF
:1008B000DF92EF92FF920F931F93CF93DF936C0120
:1008C0007B018B01040F151FEB015E01AE18BF0801
:1008D000C017D10759F06991D601ED91FC910190B3
:1008E000F081E02DC6011995892B79F7C501DF91BB
:1008F000CF911F910F91FF90EF90DF90CF90BF901D
:10090000AF900895CF92DF92EF92FF920F931F93D3
:10091000CF93DF93FC01C48121E020938402C09334
:100920005E021092A8021092A7028485682B81E2D1
:1009300093E00E948B02D091A702D13208F092C0BE
:100940000E94F3036B017C018091F702811165C065
:1009500082E08093F70281E08093F9028FEF809329
:10096000F60210921B03D0931A03A4E6B2E0EAEF5A
:10097000F2E080E0D81385C010921C0380911C0324
:10098000CC0FC82BC0931C038091F802813009F072
:100990007CC01092F8020E94F3036B017C018091ED
:1009A0001C038093BB008091AA029091AB02A0919E
:1009B000AC02B091AD02892B8A2B8B2B99F00E944F
:1009C000F3030091AA021091AB022091AC02309186
:1009D000AD026C197D098E099F09061717072807B4
:1009E0003907E0F18091BC0083FDD9CF85EC80937D
:1009F000BC000E94F3036B017C018091F7028230FE
:100A000009F445C08091F6028F3F61F18091F602B2
:100A1000803241F18091F60225C08091AA02909126
:100A2000AB02A091AC02B091AD02892B8A2B8B2B2B
:100A300009F48ACF0E94F3030091AA021091AB023D
:100A40002091AC023091AD026C197D098E099F098D
:100A5000061717072807390708F076CF8091A902F3
:100A60000E9496031092A8021092A702109284028C
:100A7000DF91CF911F910F91FF90EF90DF90CF907A
:100A800008959D9191938F5F75CF85EEB0CF809142
:100A9000AA029091AB02A091AC02B091AD02892B59
:100AA0008A2B8B2B09F4A9CF0E94F3030091AA0291
:100AB0001091AB022091AC023091AD026C197D090E
:100AC0008E099F09061717072807390708F095CFE1
:100AD000C5CF089590E080E00895CF92DF92EF9225
:100AE000FF920F931F93CF93DF931F921F92CDB767
:100AF000DEB769834A83880F991F009183031091A1
:100B00008403000F111FEDE2F3E09F012D523340EB
:100B10002017310714F41192F8CF2981FC01E35D0D
:100B2000FC4F21838A81808360E0809181030E9451
:100B30004A031016110604F501501109F801E35D8E
:100B4000FC4FE080D0907F03C0907D0388E0F82EBA
:100B50006E2D661F6627661F8C2D0E944A03EE0CC1
:100B600061E08D2D0E944A0360E08D2D0E944A03B2
:100B7000FA94F110EDCFDDCF61E0809181030F9009
:100B80000F90DF91CF911F910F91FF90EF90DF9029
:100B9000CF900C944A03EF92FF920F931F93CF9341
:100BA0007C018C0183E0000F111F8A95E1F7035C43
:100BB0001C4FC1E0F80111928F0140E06C2FC7017A
:100BC0000E946D05CF5FC930A9F7CF911F910F919A
:100BD000FF90EF9008956F927F928F929F92AF92C5
:100BE000BF92CF92DF92EF92FF920F931F93CF931A
:100BF000DF938C017B016A01912C812C80E8A82E67
:100C0000B12CC501082C02C0959587950A94E2F78E
:100C1000682E782E7094D0E0C0E08091830390918C
:100C20008403C230D1051CF480169106C4F09E01E5
:100C3000235031092230310560F48E149F047CF07A
:100C400018161906DCF4FE01E35DFC4F40894721CC
:100C50000EC0C630D105A4F38C149D048CF7181671
:100C6000190664F4FE01E35DFC4F40894629408B80
:100C70006C2F6F5F90E080E00E946D052196C83078
:100C8000D10559F68FEF881A980A88E088169104E2
:100C900009F0B7CFDF91CF911F910F91FF90EF90A7
:100CA000DF90CF90BF90AF909F908F907F906F908C
:100CB00008950F931F93CF938C01C62F0E94820437
:100CC0006C2F6460C8010E9482046C2F6B7FC80186
:100CD0000E94820483EC90E00197F1F7CF911F917D
:100CE0000F9108950F931F93CF93DF938C01D62F0D
:100CF000C42F607F642B0E94590680E1D89FB00109
:100D000011246C2BC801DF91CF911F910F910C948E
:100D10005906CF93DF9300D000D01F921F92CDB71A
:100D2000DEB798E0E8E1F2E0DE01119601900D9265
:100D30009A95E1F790919303981708F48FEF90E05C
:100D4000880F991F21E030E02C0F3D1F820F931F69
:100D5000FC016081606840E08BE893E028960FB664
:100D6000F894DEBF0FBECDBFDF91CF910C94720619
:100D700041E00E94720681E090E0089585ED809345
:100D8000BC008091AA029091AB02A091AC02B091FC
:100D9000AD020796A11DB11D23E0B695A7959795C5
:100DA00087952A95D1F72091BC0024FD03C01092AD
:100DB000F70208954091AA025091AB026091AC02F3
:100DC0007091AD02452B462B472B69F30097A10587
:100DD000B10541F02AE22A95F1F700C00197A10977
:100DE000B109E1CF8091A9020C9496031F920F9252
:100DF0000FB60F9211240BB60F922F933F934F9380
:100E00005F936F937F938F939F93AF93BF93EF9372
:100E1000FF938091B900887F803609F44DC008F0B7
:100E200040C0883209F4A9C028F5803109F49DC07A
:100E3000C8F4882309F4FBC0883009F496C0FF91F8
:100E4000EF91BF91AF919F918F917F916F915F9142
:100E50004F913F912F910F900BBE0F900FBE0F90AF
:100E60001F901895883109F488C0803241F780932B
:100E7000F60214C0803409F49DC040F48033B9F305
:100E80008833E9F68093F60285ECB0C0803509F42A
:100E900085C0883509F496C0883489F60E94BE065C
:100EA000CECF883909F48CC038F5883729F050F452
:100EB000883611F0803719F683E08093F70210929C
:100EC000F50257C0883809F47BC0803919F08038A2
:100ED00009F0B5CF8091F502803208F071C0E09141
:100EE000F50281E08E0F8093F5028091BB00F0E067
:100EF000EB52FD4F80833DC0803B39F0E0F4803AF7
:100F000009F479C0883A09F09ACF84E08093F70217
:100F10001092D2021092D102E091CF02F091D00251
:100F200019958091D10281110FC081E08093D10287
:100F30001092AF0209C0803C09F4A6CF883C09F4A6
:100F4000A3CF883B09F07BCFE091D20281E08E0FE6
:100F50008093D202F0E0E155FD4F80818093BB0089
:100F60009091D2028091D10229C080911C0380937C
:100F7000BB0085EC8093BC0062CF90911B038091F5
:100F80001A03981758F5E0911B0381E08E0F8093A8
:100F90001B03F0E0E650FD4F8081E9CFE0911B0399
:100FA00081E08E0F80931B038091BB00F0E0E65040
:100FB000FD4F808390911B0380911A039817C8F20C
:100FC00085E8D8CFE0911B0381E08E0F80931B034F
:100FD0008091BB00F0E0E650FD4F80838091F902E4
:100FE00081115CCF81E08093F80284EA8093BC0099
:100FF0001092F70224CF85EC8093BC001092F70288
:101000008091F502803230F4E091F502F0E0EB528D
:10101000FD4F10826091F50270E0E091D302F091F3
:10102000D40285ED92E019951092F50208CF109246
:10103000F60234CF1F920F920FB60F9211242F9306
:101040003F938F939F93AF93BF9380911D03909194
:101050001E03A0911F03B091200330915F0223E093
:10106000230F2D3758F50196A11DB11D20935F0266
:1010700080931D0390931E03A0931F03B09320033E
:101080008091600290916102A0916202B09163022E
:101090000196A11DB11D8093600290936102A093FF
:1010A0006202B0936302BF91AF919F918F913F9184
:1010B0002F910F900FBE0F901F90189526E8230FC9
:1010C0000296A11DB11DD2CFCF93DF9310922403BE
:1010D0001092230388EE93E0A0E0B0E08093250314
:1010E00090932603A0932703B093280384E292E011
:1010F000909322038093210310929A0310929E03EF
:1011000010929D0310929F0382E492E090939903C2
:1011100080939803E4EBF3E080EF93E01082148275
:101120001382158236968E179F07C1F784E092E0EE
:101130009093FB038093FA0380E092E09093FD0389
:101140008093FC0384E08093FE038093FF0328E0F8
:1011500032E03093F9032093F803CAE0D0E0D09353
:101160000104C093000424EF31E030930304209382
:10117000020410920604109205041092F4031092D7
:10118000F5031092F6031092F703109204041092E4
:101190008E0310928D0326E332E030938C0320936C
:1011A0008B031092940397E290938F0394E19093B2
:1011B00095038093960310929703D0937E03C09378
:1011C0007D038CE090E09093800380937F038BE01D
:1011D00090E0909382038093810381E090E090936C
:1011E00084038093830361E08AE00E94B70361E097
:1011F00080917F030E94B70361E0809181030E9488
:10120000B70361E0809181030E944A03D0937E037B
:10121000C0937D03EDE3F3E08DE793E011928E1729
:101220009F07E1F7D0E0C0E08091830390918403B1
:10123000C817D90774F540E06FE0CE010E946D0534
:101240008091830390918403C817D9072CF447E059
:101250006BE0CE010E946D0540E069E0CE010E9486
:101260006D058091830390918403C817D9071CF4FE
:10127000CE010E94CB058091830390918403C8170F
:10128000D9072CF440E06CE0CE010E946D05219658
:10129000CBCFDF91CF910895789484B5826084BDDF
:1012A00084B5816084BD85B5826085BD85B581606A
:1012B00085BD80916E00816080936E0010928100E8
:1012C00080918100826080938100809181008160A3
:1012D0008093810080918000816080938000809164
:1012E000B10084608093B1008091B00081608093F0
:1012F000B000809191008260809391008091910074
:101300008160809391008091900081608093900033
:101310008091A10082608093A1008091A1008160F2
:101320008093A1008091A00081608093A0008091B3
:10133000210182608093210180912101816080934D
:1013400021018091200181608093200180917A00A9
:10135000846080937A0080917A00826080937A0022
:1013600080917A00816080937A0080917A00806811
:1013700080937A001092C1001092A6021092A502EA
:101380001092A8021092A7020E94780382E392E0D2
:101390009093D0028093CF0283E392E09093D402A3
:1013A0008093D3021092900380919603823018F0BC
:1013B00098E0909390038093930362E370E080E061
:1013C00090E00E941804609197038BE893E00E94DC
:1013D000820468EE73E080E090E00E94180460E30D
:1013E0008BE893E00E945906CBE4D6E4CE01019746
:1013F000F1F760E38BE893E00E9459062197F1F73B
:1014000060E38BE893E00E94590683E592E0019740
:10141000F1F760E28BE893E00E9459066091900337
:10142000606240E08BE893E00E94720684E0809363
:10143000910340E06CE08BE893E00E94720640E08C
:1014400061E08BE893E00E9472068BE39FE10197D5
:10145000F1F780919403882319F080E00E948906B7
:1014600082E08093920340E066E08BE893E00E9484
:10147000720640E062E08BE893E00E9472068BE324
:101480009FE10197F1F788E08093970360E08BE894
:1014900093E00E94820480E00E94890644E150E0CB
:1014A00068E472E08BE893E00E9455048091830326
:1014B000909184031816190634F441E06CE090E032
:1014C00080E00E946D05809183039091840318163B
:1014D000190634F448E06AE090E080E00E946D056F
:1014E00080918303909184031816190624F490E0E8
:1014F00080E00E94CB0583E090E090938603809388
:10150000850385E090E0909388038093870387E0CC
:1015100090E090938A038093890347E050E065E070
:1015200070E083E090E00E94EB05412C512C3201E9
:10153000439422242A94322C50E0C52E50E0D52E1C
:1015400051E0509304048FB7F89440911D035091DB
:101550001E0360911F03709120038FBF8091F403DD
:101560009091F503A091F603B091F703481B590B36
:101570006A0B7B0B8091000490910104B0E0A0E025
:1015800084179507A607B70708F012C1C0E080913D
:10159000FE03C81760F4E091FA03F091FB03EC0F2F
:1015A000F11D62E080810E94B703CF5FF0CF912CE4
:1015B0008091FF03981608F05FC0092D10E0E091BC
:1015C000FC03F091FD03E00FF11F61E080810E94B8
:1015D000B703E091FC03F091FD03E00FF11F60E021
:1015E00080810E944A03D301C201092C04C0880FE4
:1015F000991FAA1FBB1F0A94D2F75C017C01E094DB
:10160000F094812C8091FE038816F8F4C82DD0E068
:10161000E091FA03F091FB03EC0FFD1F80810E9423
:1016200021032496CC0FDD1FC856DC4F892B41F4D3
:10163000888199818A299B29998388838394E2CF21
:10164000888199818E219F21F7CFE091FC03F09151
:10165000FD03E00FF11F61E080810E944A03809149
:10166000FC039091FD03080F191F60E0F8018081D1
:101670000E94B70393949CCFC8E9D3E0FE01878D05
:1016800090A1892B21F4148E368E258E11A23696C8
:1016900053E0E43DF50799F710E08091FE03181739
:1016A00008F053C000E0E12EF12CEE0CFF1CC70146
:1016B00080569C4F7C012091FF03021708F043C025
:1016C000F70160817181002E02C0769567950A94BA
:1016D000E2F7129F90011124200F311DE8E9F3E099
:1016E00080E0458D568D2417350709F4AAC08F5F19
:1016F00036968A30B1F760FF24C0E8E9F3E090E065
:1017000080E0448D411118C0E091F803F091F90395
:10171000E20FF31F408156E0589FF001599FF00DF2
:101720001124E856FC4F448F368F258F10A2178E58
:1017300061E00E949B0105C0019636968A309105B2
:1017400001F70F5FB8CF1F5FA8CF80E099A191117B
:10175000892F269693E0C43DD907C1F79FB7F89427
:1017600040911D0350911E0360911F03709120034F
:101770009FBF4093F4035093F5036093F603709377
:10178000F7038823A9F08091B903882389F0809119
:10179000B7039091B803019759F4C091B403C111F4
:1017A0000AC0C114D10409F4CBCE0E940000C8CEF7
:1017B00010920404F6CF81E00E94890641E06C2F6C
:1017C0008BE893E00E947206C13359F745E050E080
:1017D00065E070E083E090E00E94EB056EE571E06B
:1017E00080E090E00E9418044091890350918A03A0
:1017F000609187037091880380918503909186039F
:101800000E94EB056EE571E080E090E00E94180414
:1018100083E090E0909386038093850385E090E0D9
:10182000909388038093870390938A03809389031E
:1018300045E050E065E070E083E090E00E94EB0559
:10184000B0CF617076CFEE0FFF1F881F8BBF079060
:0A185000F691E02D1994F894FFCFF3
:10185A00050403020908070631323341343536429A
:10186A00373839432A30234400004000140054001A
:10187A00000000008B025E026A053402570244022D
:10188A00350200000000B80655046A056905000023
:10189A0000004A044E0452042A2A2A2A204E696D5C
:0E18AA002047616D652121202A2A2A2A00008C
:00000001FF
