:100000000C9451010C9482010C9482010C94820195
:100010000C9482010C9482010C9482010C94820154
:100020000C9482010C9482010C9482010C94820144
:100030000C9482010C9482010C9482010C94820134
:100040000C9482010C9482010C9482010C94820124
:100050000C9482010C9482010C9482010C9451083E
:100060000C9482010C94C5080C949B080C9482019A
:100070000C9482010C9482010C9482010C948201F4
:100080000C9482010C9482010C9482010C948201E4
:100090000C9482010C9482010C9482010C942D0723
:1000A0000C9482010C9482010C9482010C948201C4
:1000B0000C9482010C9482010C9482010C948201B4
:1000C0000C9482010C9482010C9482010C948201A4
:1000D0000C9482010C9482010C9482010C94820194
:1000E0000C9482010C94EE020C948E040C94F60293
:1000F0000C9425030C9403030C943E020C94F70417
:100100000C9411030C943F020C9450020C942403A1
:100110000C94BF040C946A020C947D060C94440564
:100120000C945A040C9456040C945E040C9497029C
:100130000C9463020C94E4020C9409030C94FB08E5
:100140000C940D030C949D040C9440020C94F90241
:100150000C947C060C9429030C9441020C941B0310
:100160000C941F030C94FF020C94B1040C94F20243
:100170000C9427070C94EA020C9417030C94610466
:1001800000002100240027002A002D003000330049
:1001900001010000040107010A01000022002500FE
:1001A00028002B002E003100340002010000050160
:1001B00008010B01000020002300260029002C006C
:1001C0002F003200000100000301060109010505AE
:1001D0000505070508080808020202020A0A0808BD
:1001E00004040404010101010101010103030303EB
:1001F00003030303040707070C0C0C0C0C0C0C0C7A
:100200000202020206060606060606060B0B0B0B8A
:100210000B0B0B0B010210202008081020401020AF
:1002200040800201020108040201010204081020BA
:1002300040808040201008040201800402018040B8
:100240002010080402010804020101020408102021
:100250004080010204081020408000000A0B0209BF
:100260000C0D0E0807030401000000000000000050
:10027000000000000000000000000000000000007E
:10028000000000000000121110000000000000003B
:10029000000000000000000000000000000000005E
:1002A000FB0811241FBECFEFD1E2DEBFCDBF00E0BF
:1002B0000CBF12E0A0E0B2E0ECEBF8E100E00BBF15
:1002C00002C007900D92A83AB107D9F724E0A8EA36
:1002D000B2E001C01D92A039B207E1F711E0C1E51B
:1002E000D1E000E006C021970109802FFE010E94A5
:1002F000540CC035D10780E00807A9F70E94B00967
:100300000C945C0C0C94000096E0899FD0011124A1
:10031000AF5DBB4F90967C936E935F9791E0919603
:100320009C939197E0918E04F0918F0490918D04AD
:10033000992339F0309751F0811108C080913D0424
:100340001994309719F05C968C91FACF0895CF925A
:10035000DF92EF92FF920F931F9396E0899FF00137
:100360001124EF5DFB4F11A2278D30A12130310503
:1003700051F178F02230310509F451C023303105B4
:1003800009F452C01F910F91FF90EF90DF90CF9032
:1003900008956623B9F361E070E00E9484012FB7ED
:1003A000F8948091670390916803A0916903B091DC
:1003B0006A032FBF8093790490937A04A0937B04FF
:1003C000B0937C04DFCF9FB7F894C0906703D090C0
:1003D0006803E0906903F0906A039FBF009179047D
:1003E00010917A0420917B0430917C04C01AD10AC8
:1003F000E20AF30A00918B0410918C0430E020E0B3
:100400000C151D052E053F0550F462E070E01F91AC
:100410000F91FF90EF90DF90CF900C9484016111C9
:10042000B1CF63E070E0F3CF70E060E0F0CF2091F7
:100430001B03260F3327331F21323105ECF42091A3
:100440004103FC0190E080E0243069F082E00895EF
:10045000A0911B032191AC0147505D4FA40FB52F14
:10046000B11D2C930196861798F380911B03680F9A
:1004700060931B0380E0089581E008950895089536
:100480000895E091F0028091EF02E81730F4F0E077
:10049000E153FD4F808190E008958FEF9FEF089525
:1004A0009091F0028091EF022FEF3FEF981748F400
:1004B000E92FF0E0E153FD4F208130E09F5F909302
:1004C000F002C90108958091EF029091F002891B1A
:1004D000990B0895CF92DF92EF92FF920F931F93A3
:1004E000CF93DF937C01CB018A012091CE0222239E
:1004F00089F0EB016B01C40ED51ECC15DD0569F04A
:100500006991D701ED91FC910190F081E02DC70137
:100510001995F3CF642F0E941702C801DF91CF9184
:100520001F910F91FF90EF90DF90CF900895CF93A0
:10053000DF931F92CDB7DEB769832091CE022223CD
:10054000F9F02091F102203258F021E030E0FC0176
:100550003383228390E080E00F90DF91CF91089564
:100560008091F202E82FF0E0E255FD4F99819083EF
:100570008F5F8093F2028093F10281E090E0ECCFF4
:1005800061E0CE0101960E941702F7CF81508231BF
:1005900008F05AC0E82FF0E08827EE52FD4F8F4F49
:1005A0000C94540CF202F602E402EA02EE02240376
:1005B000F902FF02030309030D03110317031B03D1
:1005C00024031F0325032903809180008F778093E4
:1005D00080000895809180008F7DF9CF8091800008
:1005E000877FF5CF84B58F7784BD089584B58F7DDF
:1005F000FBCF8091B0008F778093B00008958091F9
:10060000B0008F7DF9CF809190008F77809390001C
:100610000895809190008F7DF9CF80919000877F21
:10062000F5CF8091A0008F778093A00008958091EE
:10063000A0008F7DF9CF8091A000877FF5CF8091BA
:1006400020018F77809320010895809120018F7D74
:10065000F9CF80912001877FF5CFCF93DF93282FAB
:1006600030E0F901E65AFD4F8491F901EC5EFD4F4F
:10067000D491F901E253FE4FC491CC23A1F0811132
:100680000E94C602EC2FF0E0EE0FFF1FEC54FE4F6D
:10069000A591B491EC91ED2381E090E009F480E024
:1006A000DF91CF91089580E090E0FACF1F93CF9330
:1006B000DF93282F30E0F901E65AFD4F8491F901CC
:1006C000EC5EFD4FD491F901E253FE4FC491CC236F
:1006D000A9F0162F81110E94C602EC2FF0E0EE0F58
:1006E000FF1FE656FE4FA591B4918FB7F894EC9199
:1006F000111108C0D095DE23DC938FBFDF91CF911D
:100700001F910895DE2BF8CF1092410381E0809372
:1007100043031092420361E084E10E94560361E0CA
:1007200085E10E945603E9EBF0E080818E7F8083B3
:1007300080818D7F808388E48093B80085E48093F6
:10074000BC000895CF93DF9391E09093F802882343
:10075000B9F0C091B800D091BA008091BC008A7BFA
:100760008093BC0060E084E10E94560360E085E174
:100770000E9456030E948403D093BA00C093B8002D
:10078000DF91CF910895CF93DF9390E0FC01EC5E71
:10079000FD4F249182539E4FFC0184918823C9F020
:1007A00090E0880F991FFC01E058FE4FA591B4918D
:1007B000FC01E656FE4FC591D49161110DC09FB763
:1007C000F8948C91209582238C9388812823288308
:1007D0009FBFDF91CF910895623051F49FB7F89495
:1007E0003C91822F809583238C93E8812E2BEFCF31
:1007F0008FB7F894EC912E2B2C938FBFEACF3FB795
:10080000F8948091AA029091AB02A091AC02B091B1
:10081000AD0226B5A89B05C02F3F19F00196A11D7A
:10082000B11D3FBFBA2FA92F982F8827BC01CD013A
:10083000620F711D811D911D42E0660F771F881F99
:10084000991F4A95D1F708958F929F92AF92BF92C8
:10085000CF92DF92EF92FF924B015C010E94FF0367
:100860006B017C010E94FF036C197D098E099F09B1
:10087000683E734081059105A8F321E0821A910832
:10088000A108B10888EEC80E83E0D81EE11CF11C57
:1008900081149104A104B10429F7FF90EF90DF9037
:1008A000CF90BF90AF909F908F900895862F642F28
:1008B0000C94C303862F642F0C945603862F0C943C
:1008C0002D03AF92BF92CF92DF92EF92FF920F93E0
:1008D0001F93CF93DF936C017B018B01040F151FD6
:1008E000EB015E01AE18BF08C017D10759F069913E
:1008F000D601ED91FC910190F081E02DC601199592
:10090000892B79F7C501DF91CF911F910F91FF904E
:10091000EF90DF90CF90BF90AF900895FC01538D82
:10092000448D252F30E0842F90E0821B930B5417C9
:1009300010F0CF96089501970895FC01918D828D56
:10094000981761F0A28DAE0FBF2FB11D5D968C91EF
:10095000928D9F5F9F73928F90E008958FEF9FEF2E
:100960000895FC01918D828D981731F0828DE80FEA
:10097000F11D858D90E008958FEF9FEF0895FC01A4
:10098000918D228D892F90E0805C9F4F821B910971
:100990008F739927089587E793E00E94BF0421E0B1
:1009A000892B09F420E0822F0895FC01A48DA80F63
:1009B000B92FB11DA35ABF4F2C91848D90E00196A1
:1009C0008F739927848FA689B7892C93A089B189C1
:1009D0008C91837080648C93938D848D981306C062
:1009E0000288F389E02D80818F7D80830895EF92C6
:1009F000FF920F931F93CF93DF93EC0181E0888FD9
:100A00009B8D8C8D98131AC0E889F989808185FFA8
:100A100015C09FB7F894EE89FF896083E889F9894A
:100A200080818370806480839FBF81E090E0DF914C
:100A3000CF911F910F91FF90EF900895F62E0B8D9F
:100A400010E00F5F1F4F0F731127E02E8C8D8E115A
:100A50000CC00FB607FCFACFE889F989808185FFC1
:100A6000F5CFCE010E94D504F1CFEB8DEC0FFD2F19
:100A7000F11DE35AFF4FF0829FB7F8940B8FEA897C
:100A8000FB8980818062CFCFCF93DF93EC01888D8B
:100A90008823B9F0AA89BB89E889F9898C9185FDF9
:100AA00003C0808186FD0DC00FB607FCF7CF8C9187
:100AB00085FFF2CF808185FFEDCFCE010E94D50466
:100AC000E9CFDF91CF91089580E090E0892B29F064
:100AD0000E94CB0481110E94000080E090E0892BED
:100AE00049F080E090E0892B29F00E9400008111FC
:100AF0000E94000080E090E0892B49F080E090E0C7
:100B0000892B29F00E94000081110E94000080E0E2
:100B100090E0892B49F080E090E0892B29F00E9439
:100B2000000081110C9400000895CF92DF92EF92A3
:100B3000FF920F931F93CF93DF93FC01C48121E0B9
:100B40002093CE02C093A8021092F2021092F102FA
:100B50008485682B8BE693E00E949702D091F10286
:100B6000D13208F092C00E94FF036B017C0180919A
:100B70004103811165C082E08093410381E080934D
:100B800043038FEF8093400310926503D093640377
:100B9000AEEAB2E0E4E4F3E080E0D81385C010925E
:100BA000660380916603CC0FC82BC09366038091C7
:100BB0004203813009F07CC0109242030E94FF037F
:100BC0006B017C01809166038093BB008091F402ED
:100BD0009091F502A091F602B091F702892B8A2B31
:100BE0008B2B99F00E94FF030091F4021091F50203
:100BF0002091F6023091F7026C197D098E099F0948
:100C00000617170728073907E0F18091BC0083FD1C
:100C1000D9CF85EC8093BC000E94FF036B017C015F
:100C200080914103823009F445C0809140038F3F99
:100C300061F180914003803241F18091400325C0F1
:100C40008091F4029091F502A091F602B091F70222
:100C5000892B8A2B8B2B09F48ACF0E94FF030091EA
:100C6000F4021091F5022091F6023091F7026C190E
:100C70007D098E099F09061717072807390708F00D
:100C800076CF8091F3020E94A2031092F20210929A
:100C9000F1021092CE02DF91CF911F910F91FF9040
:100CA000EF90DF90CF9008959D9191938F5F75CFD6
:100CB00085EEB0CF8091F4029091F502A091F602FA
:100CC000B091F702892B8A2B8B2B09F4A9CF0E94B4
:100CD000FF030091F4021091F5022091F602309189
:100CE000F7026C197D098E099F0906171707280757
:100CF000390708F095CFC5CF089590E080E00895BA
:100D0000FC0101900020E9F73197AF01481B590B16
:100D1000BC0184E194E00C94610485ED8093BC00F7
:100D20008091F4029091F502A091F602B091F70241
:100D30000796A11DB11D23E0B695A79597958795B8
:100D40002A95D1F72091BC0024FD03C010924103E5
:100D500008954091F4025091F5026091F60270916D
:100D6000F702452B462B472B69F30097A105B105E8
:100D700041F02AE22A95F1F700C00197A109B109D3
:100D8000E1CF8091F3020C94A2030F931F93CF93B2
:100D90008C01C62F0E9495056C2F6460C8010E94CB
:100DA00095056C2F6B7FC8010E94950583EC90E040
:100DB0000197F1F7CF911F910F9108950F931F9312
:100DC000CF93DF938C01D62FC42F607F642B0E94BA
:100DD000C50680E1D89FB00111246C2BC801DF91BA
:100DE000CF911F910F910C94C506CF93DF9300D044
:100DF00000D01F921F92CDB7DEB798E0E8E1F2E095
:100E0000DE01119601900D929A95E1F790911C04E4
:100E1000961710F46FEF690F262F30E0220F331F63
:100E200041E050E04C0F5D1F240F351FF901608138
:100E3000680F606840E084E194E028960FB6F8946B
:100E4000DEBF0FBECDBFDF91CF910C94DE0641E037
:100E50000E94DE0681E090E008951F920F920FB687
:100E60000F9211240BB60F922F933F934F935F93E2
:100E70006F937F938F939F93AF93BF93EF93FF9362
:100E80008091B900887F803609F44DC008F040C0D9
:100E9000883209F4A9C028F5803109F49DC0C8F44E
:100EA000882309F4FBC0883009F496C0FF91EF91C4
:100EB000BF91AF919F918F917F916F915F914F9172
:100EC0003F912F910F900BBE0F900FBE0F901F9070
:100ED0001895883109F488C0803241F78093400327
:100EE00014C0803409F49DC040F48033B9F38833D2
:100EF000E9F68093400385ECB0C0803509F485C0E5
:100F0000883509F496C0883489F60E948D06CECFC4
:100F1000883909F48CC038F5883729F050F48836C0
:100F200011F0803719F683E08093410310923F035C
:100F300057C0883809F47BC0803919F0803809F02F
:100F4000B5CF80913F03803208F071C0E0913F033C
:100F500081E08E0F80933F038091BB00F0E0E15E63
:100F6000FC4F80833DC0803B39F0E0F4803A09F4C7
:100F700079C0883A09F09ACF84E0809341031092B7
:100F80001C0310921B03E0911903F0911A031995A9
:100F900080911B0381110FC081E080931B0310928D
:100FA000F90209C0803C09F4A6CF883C09F4A3CF1C
:100FB000883B09F07BCFE0911C0381E08E0F80938A
:100FC0001C03F0E0E750FD4F80818093BB009091BF
:100FD0001C0380911B0329C0809166038093BB0092
:100FE00085EC8093BC0062CF90916503809164038F
:100FF000981758F5E091650381E08E0F80936503A3
:10100000F0E0EC5BFC4F8081E9CFE091650381E08B
:101010008E0F809365038091BB00F0E0EC5BFC4F8A
:10102000808390916503809164039817C8F285E8E6
:10103000D8CFE091650381E08E0F809365038091A6
:10104000BB00F0E0EC5BFC4F808380914303811197
:101050005CCF81E08093420384EA8093BC001092CD
:10106000410324CF85EC8093BC0010924103809112
:101070003F03803230F4E0913F03F0E0E15EFC4F4B
:10108000108260913F0370E0E0911D03F0911E0318
:101090008FE193E0199510923F0308CF109240031F
:1010A00034CF1F920F920FB60F9211242F933F93BC
:1010B0008F939F93AF93BF93809167039091680341
:1010C000A0916903B0916A033091A90223E0230F34
:1010D0002D3758F50196A11DB11D2093A9028093CB
:1010E000670390936803A0936903B0936A038091A8
:1010F000AA029091AB02A091AC02B091AD02019610
:10110000A11DB11D8093AA029093AB02A093AC02E3
:10111000B093AD02BF91AF919F918F913F912F916D
:101120000F900FBE0F901F90189526E8230F029680
:10113000A11DB11DD2CF1F920F920FB60F92112495
:101140000BB60F922F933F934F935F936F937F93C1
:101150008F939F93AF93BF93EF93FF9387E793E0B2
:101160000E94D504FF91EF91BF91AF919F918F9114
:101170007F916F915F914F913F912F910F900BBE97
:101180000F900FBE0F901F9018951F920F920FB6E1
:101190000F9211240BB60F922F938F939F93EF937F
:1011A000FF93E0918703F09188038081E0918D03A4
:1011B000F0918E0382FD1DC09081809190038F5F1E
:1011C0008F7320919103821741F0E0919003F0E03A
:1011D000E958FC4F958F80939003FF91EF919F9179
:1011E0008F912F910F900BBE0F900FBE0F901F90FD
:1011F00018958081F2CF10926E0310926D0388EEE5
:1012000093E0A0E0B0E080936F0390937003A0930D
:101210007103B093720324E232E030936C032093A5
:101220006B0310927A031092790380937B0390935F
:101230007C03A0937D03B0937E0386E392E09093BA
:1012400078038093770385EC90E0909384038093F8
:10125000830384EC90E0909386038093850380EC75
:1012600090E0909388038093870381EC90E09093C3
:101270008A038093890382EC90E090938C0380939F
:101280008B0386EC90E090938E0380938D031092F5
:101290009003109291031092920310929303109274
:1012A000230410922704109226041092280484E547
:1012B00092E09093220480932104EDE3F4E0108205
:1012C000148213821582369684E0E937F807B9F75D
:1012D00084E092E0909384048093830480E092E021
:1012E000909386048093850484E0809387048093A0
:1012F000880428E032E030938204209381042AE0BD
:1013000030E030938A042093890424EF31E0309355
:101310008C0420938B0410928F0410928E041092F0
:101320007D0410927E0410927F041092800410922B
:101330008D04109217041092160428E432E03093C2
:1013400015042093140410921D0497E2909318043E
:1013500094E190931E0480931F041092200408953A
:10136000789484B5826084BD84B5816084BD85B580
:10137000826085BD85B5816085BD80916E0081608C
:1013800080936E0010928100809181008260809332
:101390008100809181008160809381008091800034
:1013A0008160809380008091B10084608093B1005F
:1013B0008091B00081608093B00080919100826044
:1013C0008093910080919100816080939100809141
:1013D00090008160809390008091A1008260809352
:1013E000A1008091A10081608093A1008091A00064
:1013F00081608093A000809121018260809321010F
:101400008091210181608093210180912001816080
:101410008093200180917A00846080937A0080918B
:101420007A00826080937A0080917A008160809354
:101430007A0080917A00806880937A001092C100CF
:10144000E0918703F091880382E08083E091830339
:10145000F09184031082E0918503F09186038FEC74
:10146000808310928F03E0918B03F0918C0386E0D0
:101470008083E0918903F0918A0380818061808379
:10148000E0918903F0918A03808188608083E091F4
:101490008903F0918A03808180688083E0918903C9
:1014A000F0918A0380818F7D80831092F0021092E8
:1014B000EF021092F2021092F1020E9484038EE376
:1014C00092E090931A03809319038FE392E0909334
:1014D0001E0380931D031092190480911F04823013
:1014E00018F098E09093190480931C0462E370E074
:1014F00080E090E00E9424046091200484E194E064
:101500000E94950568EE73E080E090E00E9424045C
:1015100060E384E194E00E94C506CBE4D6E4CE010A
:101520000197F1F760E384E194E00E94C5062197FA
:10153000F1F760E384E194E00E94C50683E592E060
:101540000197F1F760E284E194E00E94C5066091A2
:101550001904606240E084E194E00E94DE0684E0C9
:1015600080931A0440E06CE084E194E00E94DE067F
:1015700040E061E084E194E00E94DE068BE39FE1BD
:101580000197F1F780911D04882321F060E080E04D
:101590000E94F50682E080931B0440E066E084E14F
:1015A00094E00E94DE0640E062E084E194E00E9464
:1015B000DE068BE39FE10197F1F788E0809320043A
:1015C00060E084E194E00E94950560E083E00E9481
:1015D000F5068AE592E00E94800661E082E00E94C2
:1015E000F50688E692E00E94800662E080E00E94B4
:1015F000F5068AE792E00E94800663E080E00E94A0
:10160000F5068FE892E00E94800622242394412C64
:10161000512C32014394CC24CA94DC2C56E0352E54
:1016200020928D048FB7F89440916703509168031E
:101630006091690370916A038FBF80917D049091DE
:101640007E04A0917F04B0918004481B590B6A0B63
:101650007B0B8091890490918A04B0E0A0E084170C
:101660009507A607B70708F00DC1C0E08091870471
:10167000C81760F4E0918304F0918404EC0FF11D2D
:1016800062E080810E94C303CF5FF0CF912C8091F4
:101690008804981608F05FC0092D10E0E0918504D9
:1016A000F0918604E00FF11F61E080810E94C30386
:1016B000E0918504F0918604E00FF11F60E08081E5
:1016C0000E945603D301C201092C04C0880F991F40
:1016D000AA1FBB1F0A94D2F75C017C01E094F0942E
:1016E000812C809187048816F8F4C82DD0E0E09111
:1016F0008304F0918404EC0FFD1F80810E942D0370
:101700002496CC0FDD1FCF5DDB4F892B41F4888100
:1017100099818A299B29998388838394E2CF888140
:1017200099818E219F21F7CFE0918504F091860465
:10173000E00FF11F61E080810E94560380918504D3
:1017400090918604080F191F60E0F80180810E94C3
:10175000C30393949CCFC1E2D4E0FE01878D90A196
:10176000892B21F4148ED68EC58E11A2369684E074
:10177000ED35F80799F710E080918704181708F005
:1017800052C000E0E12EF12CEE0CFF1CF701E75DEA
:10179000FB4F7F0120918804021708F042C0F70137
:1017A00060817181002E02C0769567950A94E2F7F8
:1017B000129F90011124200F311DE1E2F4E080E03E
:1017C000458D568D2417350709F46CC08F5F36960A
:1017D0008A30B1F760FF23C0E1E2F4E090E080E0FE
:1017E000448D411117C0E0918104F0918204E20F11
:1017F000F31F6081389EF001399EF00D1124EF5DDA
:10180000FB4F648F368F258F10A2178E61E00E94E8
:10181000A70105C0019636968A30910509F70F5F3A
:10182000B9CF1F5FA9CF80E099A19111892F26968A
:10183000F4E0CD35DF07C1F79FB7F8944091670317
:10184000509168036091690370916A039FBF409350
:101850007D0450937E0460937F04709380048823FA
:1018600089F080914204882369F08091400490912E
:101870004104019739F460913D04611106C00E9452
:101880006405CECE10928D04FACF87E793E00E94D4
:10189000F70442E050E064EA72E087E793E00E94D8
:1018A0006104EDCF6170B3CFEE0FFF1F881F8BBFB8
:0C18B0000790F691E02D1994F894FFCFFA
:1018BC000504030209080706313233413435364238
:1018CC00373839432A3023440000400014005400B8
:1018DC000000000097026A027D064002630250027B
:1018EC00410200000000F70461048E044405BF04AB
:1018FC009D04B10400000000270761047D067C06EE
:10190C000000000056045A045E0448656C6C6F2C91
:10191C0020776F726C6421005269636172646F206E
:10192C004D6172636F6E6465730061626364202D38
:10193C002041424344202D20303132333435002AAB
:10194C002A2A2A204E696D2047616D652121202AA3
:08195C002A2A2A000D0A0000EE
:00000001FF
