:100000000C9451010C9482010C9482010C94820195
:100010000C9482010C9482010C9482010C94820154
:100020000C9482010C9482010C9482010C94820144
:100030000C9482010C9482010C9482010C94820134
:100040000C9482010C9482010C9482010C94820124
:100050000C9482010C9482010C9482010C94A909E5
:100060000C9482010C941D0A0C94F3090C948201E7
:100070000C9482010C9482010C9482010C948201F4
:100080000C9482010C9482010C9482010C948201E4
:100090000C9482010C9482010C9482010C948508CA
:1000A0000C9482010C9482010C9482010C948201C4
:1000B0000C9482010C9482010C9482010C948201B4
:1000C0000C9482010C9482010C9482010C948201A4
:1000D0000C9482010C9482010C9482010C94820194
:1000E0000C9482010C9497020C94F1030C9422045A
:1000F0000C947C060C9450020C9425030C94300450
:100100000C94F5030C9414040C940A040C94E90266
:100110000C94EB030C9418040C947D060C942604A8
:100120000C9461050C9472030C945D050C941004FE
:100130000C9406040C9400040C94FD030C942C0401
:100140000C9465050C94D5020C94C6020C942B04F7
:100150000C94E1070C94F7020C943F020C944102BA
:100160000C946A020C943E020C9463020C944002BC
:100170000C94530A0C941E040C94F9030C94680517
:1001800000002100240027002A002D003000330049
:1001900001010000040107010A01000022002500FE
:1001A00028002B002E003100340002010000050160
:1001B00008010B01000020002300260029002C006C
:1001C0002F003200000100000301060109010505AE
:1001D0000505070508080808020202020A0A0808BD
:1001E00004040404010101010101010103030303EB
:1001F00003030303040707070C0C0C0C0C0C0C0C7A
:100200000202020206060606060606060B0B0B0B8A
:100210000B0B0B0B010210202008081020401020AF
:1002200040800201020108040201010204081020BA
:1002300040808040201008040201800402018040B8
:100240002010080402010804020101020408102021
:100250004080010204081020408000000A0B0209BF
:100260000C0D0E0807030401000000000000000050
:10027000000000000000000000000000000000007E
:10028000000000000000121110000000000000003B
:10029000000000000000000000000000000000005E
:1002A000530A11241FBECFEFD1E2DEBFCDBF00E065
:1002B0000CBF12E0A0E0B2E0EEE2FFE100E00BBF15
:1002C00002C007900D92AA3EB107D9F725E0AAEE29
:1002D000B2E001C01D92AC33B207E1F711E0C1E515
:1002E000D1E000E006C021970109802FFE010E94A5
:1002F0008D0FC035D10780E00807A9F70E94960B43
:100300000C94950F0C94000096E0899FD001112465
:10031000A353BB4F90967C936E935F9791E0919619
:100320009C939197E0913A05F0913B0590913905A6
:10033000992339F0309751F0811108C08091E90478
:100340001994309719F05C968C91FACF0895CF925A
:10035000DF92EF92FF920F931F9396E0899FF00137
:100360001124E353FB4F11A2278D30A12130310519
:1003700051F178F02230310509F451C023303105B4
:1003800009F452C01F910F91FF90EF90DF90CF9032
:1003900008956623B9F361E070E00E9484012FB7ED
:1003A000F8948091A9039091AA03A091AB03B09116
:1003B000AC032FBF8093250590932605A0932705B6
:1003C000B0932805DFCF9FB7F894C090A903D090D1
:1003D000AA03E090AB03F090AC039FBF009125050A
:1003E000109126052091270530912805C01AD10AC1
:1003F000E20AF30A009137051091380530E020E059
:100400000C151D052E053F0550F462E070E01F91AC
:100410000F91FF90EF90DF90CF900C9484016111C9
:10042000B1CF63E070E0F3CF70E060E0F0CF2091F7
:100430005D03260F3327331F21323105ECF4209161
:100440008303FC0190E080E0243069F082E00895AD
:10045000A0915D032191AC01455C5C4FA40FB52FC9
:10046000B11D2C930196861798F380915D03680F58
:1004700060935D0380E0089581E0089508950895F4
:100480000895E091320380913103E81730F4F0E0F1
:10049000EF5EFC4F808190E008958FEF9FEF08950D
:1004A00090913203809131032FEF3FEF981748F47A
:1004B000E92FF0E0EF5EFC4F208130E09F5F9093EA
:1004C0003203C90108958091310390913203891B51
:1004D000990B0895CF92DF92EF92FF920F931F93A3
:1004E000CF93DF937C01CB018A012091100322235B
:1004F00089F0EB016B01C40ED51ECC15DD0569F04A
:100500006991D701ED91FC910190F081E02DC70137
:100510001995F3CF642F0E941702C801DF91CF9184
:100520001F910F91FF90EF90DF90CF900895CF93A0
:10053000DF931F92CDB7DEB769832091100322238A
:10054000F9F020913303203258F021E030E0FC0133
:100550003383228390E080E00F90DF91CF91089564
:1005600080913403E82FF0E0E051FD4F99819083B2
:100570008F5F809334038093330381E090E0ECCF6E
:1005800061E0CE0101960E941702F7CFFC01538D66
:10059000448D252F30E0842F90E0821B930B54175D
:1005A00010F0CF96089501970895FC01918D828DEA
:1005B000981761F0A28DAE0FBF2FB11D5D968C9183
:1005C000928D9F5F9F73928F90E008958FEF9FEFC2
:1005D0000895FC01918D828D981731F0828DE80F7E
:1005E000F11D858D90E008958FEF9FEF0895FC0138
:1005F000918D228D892F90E0805C9F4F821B910905
:100600008F7399270895FC01A48DA80FB92FB11DF0
:10061000A35ABF4F2C91848D90E001968F73992738
:10062000848FA689B7892C93A089B1898C91837016
:1006300080648C93938D848D981306C00288F3890F
:10064000E02D80818F7D80830895EF92FF920F933C
:100650001F93CF93DF93EC0181E0888F9B8D8C8D6E
:1006600098131AC0E889F989808185FF15C09FB762
:10067000F894EE89FF896083E889F9898081837025
:10068000806480839FBF81E090E0DF91CF911F91D4
:100690000F91FF90EF900895F62E0B8D10E00F5FF5
:1006A0001F4F0F731127E02E8C8D8E110CC00FB6CB
:1006B00007FCFACFE889F989808185FFF5CFCE0163
:1006C0000E940303F1CFEB8DEC0FFD2FF11DE35AD8
:1006D000FF4FF0829FB7F8940B8FEA89FB898081E6
:1006E0008062CFCFCF93DF93EC01888D8823B9F060
:1006F000AA89BB89E889F9898C9185FD03C080812D
:1007000086FD0DC00FB607FCF7CF8C9185FFF2CFA9
:10071000808185FFEDCFCE010E940303E9CFDF91F9
:10072000CF91089589EB93E00E94F70221E0892B95
:1007300009F420E0822F089580E090E0892B29F0D1
:100740000E94920381110E94000080E090E0892BBA
:1007500049F080E090E0892B29F00E94000081118F
:100760000E94000080E090E0892B49F080E090E05A
:10077000892B29F00E94000081110E94000080E076
:1007800090E0892B49F080E090E0892B29F00E94CD
:10079000000081110C94000008958150823108F00E
:1007A0005AC0E82FF0E08827E752FC4F8F4F0C9497
:1007B0008D0FF903FD03EB03F103F5032B04000494
:1007C00006040A041004140418041E0422042B0452
:1007D00026042C043004809180008F778093800061
:1007E0000895809180008F7DF9CF80918000877F70
:1007F000F5CF84B58F7784BD089584B58F7DFBCF09
:100800008091B0008F778093B00008958091B00000
:100810008F7DF9CF809190008F778093900008951D
:10082000809190008F7DF9CF80919000877FF5CFE8
:100830008091A0008F778093A00008958091A00000
:100840008F7DF9CF8091A000877FF5CF8091200127
:100850008F77809320010895809120018F7DF9CFBB
:1008600080912001877FF5CFCF93DF93282F30E051
:10087000F901E65AFD4F8491F901EC5EFD4FD491E8
:10088000F901E253FE4FC491CC23A1F081110E94E3
:10089000CD03EC2FF0E0EE0FFF1FEC54FE4FA591BF
:1008A000B491EC91ED2381E090E009F480E0DF91D8
:1008B000CF91089580E090E0FACF1F93CF93DF931C
:1008C000282F30E0F901E65AFD4F8491F901EC5EE2
:1008D000FD4FD491F901E253FE4FC491CC23A9F00E
:1008E000162F81110E94CD03EC2FF0E0EE0FFF1FB9
:1008F000E656FE4FA591B4918FB7F894EC91111183
:1009000008C0D095DE23DC938FBFDF91CF911F917C
:100910000895DE2BF8CF1092830381E08093850346
:100920001092840361E084E10E945D0461E085E14E
:100930000E945D04E9EBF0E080818E7F80838081FE
:100940008D7F808388E48093B80085E48093BC0029
:100950000895CF93DF9391E090933A038823B9F001
:10096000C091B800D091BA008091BC008A7B80937E
:10097000BC0060E084E10E945D0460E085E10E94CB
:100980005D040E948B04D093BA00C093B800DF913D
:10099000CF910895CF93DF9390E0FC01EC5EFD4F83
:1009A000249182539E4FFC0184918823C9F090E0EA
:1009B000880F991FFC01E058FE4FA591B491FC01EE
:1009C000E656FE4FC591D49161110DC09FB7F894C2
:1009D0008C91209582238C938881282328839FBF24
:1009E000DF91CF910895623051F49FB7F8943C9114
:1009F000822F809583238C93E8812E2BEFCF8FB7A6
:100A0000F894EC912E2B2C938FBFEACF3FB7F8943C
:100A10008091EC029091ED02A091EE02B091EF0274
:100A200026B5A89B05C02F3F19F00196A11DB11D49
:100A30003FBFBA2FA92F982F8827BC01CD01620F85
:100A4000711D811D911D42E0660F771F881F991F40
:100A50004A95D1F708958F929F92AF92BF92CF920D
:100A6000DF92EF92FF924B015C010E9406056B0141
:100A70007C010E9406056C197D098E099F09683E5C
:100A8000734081059105A8F321E0821A9108A1081D
:100A9000B10888EEC80E83E0D81EE11CF11C811459
:100AA0009104A104B10429F7FF90EF90DF90CF905B
:100AB000BF90AF909F908F900895862F642F0C94D5
:100AC000CA04862F642F0C945D04862F0C94340482
:100AD000AF92BF92CF92DF92EF92FF920F931F934C
:100AE000CF93DF936C017B018B01040F151FEB018A
:100AF0005E01AE18BF08C017D10759F06991D60141
:100B0000ED91FC910190F081E02DC6011995892BA2
:100B100079F7C501DF91CF911F910F91FF90EF9071
:100B2000DF90CF90BF90AF900895CF92DF92EF9279
:100B3000FF920F931F93CF93DF93FC01C48121E0B9
:100B400020931003C093EA021092340310923303EF
:100B50008485682B8DEA93E00E949702D09133033D
:100B6000D13208F092C00E9406056B017C01809191
:100B70008303811165C082E08093830381E08093C9
:100B800085038FEF809382031092A703D093A6036F
:100B9000A0EFB2E0E6E8F3E080E0D81385C0109261
:100BA000A8038091A803CC0FC82BC093A803809101
:100BB0008403813009F07CC0109284030E940605F2
:100BC0006B017C018091A8038093BB008091360368
:100BD00090913703A0913803B0913903892B8A2B68
:100BE0008B2B99F00E940605009136031091370374
:100BF00020913803309139036C197D098E099F09C2
:100C00000617170728073907E0F18091BC0083FD1C
:100C1000D9CF85EC8093BC000E9406056B017C0156
:100C200080918303823009F445C0809182038F3F15
:100C300061F180918203803241F18091820325C06D
:100C40008091360390913703A0913803B091390316
:100C5000892B8A2B8B2B09F48ACF0E9406050091E1
:100C600036031091370320913803309139036C1902
:100C70007D098E099F09061717072807390708F00D
:100C800076CF809135030E94A9041092340310920C
:100C9000330310921003DF91CF911F910F91FF90BA
:100CA000EF90DF90CF9008959D9191938F5F75CFD6
:100CB00085EEB0CF8091360390913703A091380331
:100CC000B0913903892B8A2B8B2B09F4A9CF0E9471
:100CD00006050091360310913703209138033091B7
:100CE00039036C197D098E099F0906171707280714
:100CF000390708F095CFC5CF089590E080E00895BA
:100D0000CF92DF92EF92FF920F931F93CF93DF93D7
:100D10001F921F92CDB7DEB769834A83880F991F50
:100D20000091C5041091C604000F111FEFE6F4E016
:100D30009F012F5634402017310714F41192F8CF39
:100D40002981FC01E159FB4F21838A81808360E086
:100D50008091C3040E945D041016110604F5015031
:100D60001109F801E159FB4FE080D090C104C09017
:100D7000BF0488E0F82E6E2D661F6627661F8C2D37
:100D80000E945D04EE0C61E08D2D0E945D0460E028
:100D90008D2D0E945D04FA94F110EDCFDDCF61E05E
:100DA0008091C3040F900F90DF91CF911F910F910D
:100DB000FF90EF90DF90CF900C945D04EF92FF9244
:100DC0000F931F93CF937C018C0183E0000F111FC1
:100DD0008A95E1F701581B4FC1E0F80111928F018C
:100DE00040E06C2FC7010E948006CF5FC930A9F791
:100DF000CF911F910F91FF90EF9008956F927F9286
:100E00008F929F92AF92BF92CF92DF92EF92FF921A
:100E10000F931F93CF93DF938C017B016A01912C79
:100E2000812C80E8A82EB12CC501082C02C0959514
:100E300087950A94E2F7682E782E7094D0E0C0E08F
:100E40008091C5049091C604C230D1051CF480166F
:100E50009106C4F09E01235031092230310560F41F
:100E60008E149F047CF018161906DCF4FE01E1597B
:100E7000FB4F408947210EC0C630D105A4F38C1426
:100E80009D048CF71816190664F4FE01E159FB4F16
:100E900040894629408B6C2F6F5F90E080E00E9474
:100EA00080062196C830D10559F68FEF881A980A26
:100EB00088E08816910409F0B7CFDF91CF911F9198
:100EC0000F91FF90EF90DF90CF90BF90AF909F90E9
:100ED0008F907F906F9008950F931F93CF938C0105
:100EE000C62F0E9495056C2F6460C8010E9495056D
:100EF0006C2F6B7FC8010E94950583EC90E00197F1
:100F0000F1F7CF911F910F9108950F931F93CF93F6
:100F1000DF938C01D62FC42F607F642B0E946C0757
:100F200080E1D89FB00111246C2BC801DF91CF91D3
:100F30001F910F910C946C07CF93DF9300D000D0DA
:100F40001F921F92CDB7DEB798E0E8E1F2E0DE0134
:100F5000119601900D929A95E1F790916A04961777
:100F600010F46FEF690F262F30E0220F331F41E09E
:100F700050E04C0F5D1F240F351FF9016081680F91
:100F8000606840E082E694E028960FB6F894DEBFF1
:100F90000FBECDBFDF91CF910C94850740E061E09B
:100FA00082E694E00E9485078BE39FE10197F1F7C9
:100FB00080916B04882321F060E080E00C949C0712
:100FC000089541E00E94850781E090E00895FC01CA
:100FD00001900020E9F73197AF01481B590BBC0184
:100FE00082E694E00C946805CF93C82F61E080E01E
:100FF0000E949C078AE592E00E94E70761E087E093
:101000000E949C0741E06C2F82E694E0CF910C9403
:10101000850762E080E00E949C0782E692E00E94E1
:10102000E70763E080E00E949C0784EB92E00C9469
:10103000E7070E94CE0760E080E00E949C0787E7F8
:1010400092E00E94E70781E30E94F4070C940908EC
:10105000CF93C82F62E080E00E949C078CE892E06A
:101060000E94E70762E081E10E949C0741E06C2F4B
:1010700082E694E00E94850762E082E10E949C077C
:101080008EE992E00E94E70763E080E00E949C07FF
:1010900084EB92E0CF910C94E70785ED8093BC0040
:1010A0008091360390913703A0913803B0913903B2
:1010B0000796A11DB11D23E0B695A7959795879535
:1010C0002A95D1F72091BC0024FD03C01092830320
:1010D0000895409136035091370360913803709121
:1010E0003903452B462B472B69F30097A105B10522
:1010F00041F02AE22A95F1F700C00197A109B10950
:10110000E1CF809135030C94A9041F920F920FB682
:101110000F9211240BB60F922F933F934F935F932F
:101120006F937F938F939F93AF93BF93EF93FF93AF
:101130008091B900887F803609F44DC008F040C026
:10114000883209F4A9C028F5803109F49DC0C8F49B
:10115000882309F4FBC0883009F496C0FF91EF9111
:10116000BF91AF919F918F917F916F915F914F91BF
:101170003F912F910F900BBE0F900FBE0F901F90BD
:101180001895883109F488C0803241F78093820332
:1011900014C0803409F49DC040F48033B9F388331F
:1011A000E9F68093820385ECB0C0803509F485C0F0
:1011B000883509F496C0883489F60E944D08CECF50
:1011C000883909F48CC038F5883729F050F488360E
:1011D00011F0803719F683E0809383031092810326
:1011E00057C0883809F47BC0803919F0803809F07D
:1011F000B5CF80918103803208F071C0E091810306
:1012000081E08E0F809381038091BB00F0E0EF5965
:10121000FC4F80833DC0803B39F0E0F4803A09F414
:1012200079C0883A09F09ACF84E0809383031092C2
:101230005E0310925D03E0915B03F0915C031995EE
:1012400080915D0381110FC081E080935D03109256
:101250003B0309C0803C09F4A6CF883C09F4A3CF26
:10126000883B09F07BCFE0915E0381E08E0F809395
:101270005E03F0E0E55CFC4F80818093BB009091C1
:101280005E0380915D0329C08091A8038093BB0019
:1012900085EC8093BC0062CF9091A7038091A60358
:1012A000981758F5E091A70381E08E0F8093A7036C
:1012B000F0E0EA57FC4F8081E9CFE091A70381E09D
:1012C0008E0F8093A7038091BB00F0E0EA57FC4F9C
:1012D00080839091A7038091A6039817C8F285E8B0
:1012E000D8CFE091A70381E08E0F8093A703809170
:1012F000BB00F0E0EA57FC4F8083809185038111A9
:101300005CCF81E08093840384EA8093BC001092D8
:10131000830324CF85EC8093BC00109283038091DB
:101320008103803230F4E0918103F0E0EF59FC4F0B
:1013300010826091810370E0E0915F03F09160039F
:1013400081E693E019951092810308CF10928203F1
:1013500034CF1F920F920FB60F9211242F933F9309
:101360008F939F93AF93BF938091A9039091AA030A
:10137000A091AB03B091AC033091EB0223E0230FBB
:101380002D3758F50196A11DB11D2093EB028093D6
:10139000A9039093AA03A093AB03B093AC038091ED
:1013A000EC029091ED02A091EE02B091EF02019655
:1013B000A11DB11D8093EC029093ED02A093EE026B
:1013C000B093EF02BF91AF919F918F913F912F9179
:1013D0000F900FBE0F901F90189526E8230F0296CE
:1013E000A11DB11DD2CF1F920F920FB60F921124E3
:1013F0000BB60F922F933F934F935F936F937F930F
:101400008F939F93AF93BF93EF93FF9389EB93E0F9
:101410000E940303FF91EF91BF91AF919F918F9134
:101420007F916F915F914F913F912F910F900BBEE4
:101430000F900FBE0F901F9018951F920F920FB62E
:101440000F9211240BB60F922F938F939F93EF93CC
:10145000FF93E091C903F091CA038081E091CF032B
:10146000F091D00382FD1DC090818091D2038F5FE7
:101470008F732091D303821741F0E091D203F0E003
:10148000E754FC4F958F8093D203FF91EF919F918A
:101490008F912F910F900BBE0F900FBE0F901F904A
:1014A00018958081F2CFCF93DF931092B003109202
:1014B000AF0388EE93E0A0E0B0E08093B103909397
:1014C000B203A093B303B093B40324E232E03093A9
:1014D000AE032093AD031092BC031092BB03809324
:1014E000BD039093BE03A093BF03B093C00386E3F4
:1014F00092E09093BA038093B90385EC90E09093C7
:10150000C6038093C50384EC90E09093C803809356
:10151000C70380EC90E09093CA038093C90381ECE9
:1015200090E09093CC038093CB0382EC90E0909377
:10153000CE038093CD0386EC90E09093D00380930C
:10154000CF031092D2031092D3031092D4031092BF
:10155000D5031092CF041092D3041092D2041092AB
:10156000D40484E592E09093CE048093CD04E9EE18
:10157000F4E01082148213821582369685E0E532FB
:10158000F807B9F784E092E09093300580932F0537
:1015900080E092E0909332058093310584E080935F
:1015A00033058093340588E092E090932E05809374
:1015B0002D05CAE0D0E0D0933605C093350584EF01
:1015C00091E0909338058093370510923B05109277
:1015D0003A051092290510922A0510922B051092B7
:1015E0002C0510923905D093C004C093BF048CE041
:1015F00090E09093C2048093C1048BE090E09093BC
:10160000C4048093C30481E090E09093C604809367
:10161000C50461E08AE00E94CA0461E08091C104CF
:101620000E94CA0461E08091C3040E94CA0461E080
:101630008091C3040E945D04D093C004C093BF0492
:10164000EFE7F4E08FEB94E011928E179F07E1F73C
:10165000D0E0C0E08091C5049091C604C817D907B6
:1016600074F540E06FE0CE010E9480068091C504D1
:101670009091C604C817D9072CF447E06BE0CE015F
:101680000E94800640E069E0CE010E9480068091C1
:10169000C5049091C604C817D9071CF4CE010E9456
:1016A000DE068091C5049091C604C817D9072CF4B2
:1016B00040E06CE0CE010E9480062196CBCF1092D4
:1016C00065041092640488E492E09093630480932C
:1016D000620410926B0487E28093660484E1809335
:1016E0006C0484E080936D0410926E0483E090E0BB
:1016F00090935A048093590485E090E090935C04A1
:1017000080935B0487E090E090935E0480935D0497
:1017100081E0809358041092610481E090E09093FE
:10172000570480935604DF91CF910895789484B53F
:10173000826084BD84B5816084BD85B5826085BDCD
:1017400085B5816085BD80916E00816080936E005B
:10175000109281008091810082608093810080914D
:1017600081008160809381008091800081608093FE
:1017700080008091B10084608093B1008091B000BE
:1017800081608093B000809191008260809391008D
:1017900080919100816080939100809190008160A0
:1017A000809390008091A10082608093A10080913D
:1017B000A10081608093A1008091A000816080934E
:1017C000A0008091210182608093210180912101FC
:1017D00081608093210180912001816080932001AC
:1017E00080917A00846080937A0080917A00826090
:1017F00080937A0080917A00816080937A00809152
:101800007A00806880937A001092C10010923203AF
:101810001092310310923403109233030E948B0410
:101820008EE392E090935C0380935B038FE392E0FE
:101830009093600380935F031092670480916D041E
:10184000823018F098E09093670480936A0462E312
:1018500070E080E090E00E942B0560916E0482E6CB
:1018600094E00E94950568EE73E080E090E00E94AD
:101870002B0560E382E694E00E946C07CBE4D6E49B
:10188000CE010197F1F760E382E694E00E946C07D5
:101890002197F1F760E382E694E00E946C0783E50C
:1018A00092E00197F1F760E282E694E00E946C0713
:1018B00060916704606240E082E694E00E948507E0
:1018C00084E08093680440E06CE082E694E00E944B
:1018D00085070E94CE0782E08093690440E066E0BD
:1018E00082E694E00E94850740E062E082E694E0B0
:1018F0000E9485078BE39FE10197F1F788E08093D1
:101900006E0460E082E694E00E9495050E9419084A
:101910008091C5049091C6041816190634F441E06C
:101920006CE090E080E00E9480068091C504909178
:10193000C6041816190634F448E06AE090E080E026
:101940000E9480068091C5049091C604181619065D
:1019500024F490E080E00E94DE0640915D04509106
:101960005E0460915B0470915C04809159049091D5
:101970005A049093C8048093C7047093CA04609378
:10198000C9045093CC044093CB040E94FE06412C22
:10199000512C3201439473E0C72ED12CE5E02E2E5A
:1019A000312C81E0809339058FB7F8944091A903D9
:1019B0005091AA036091AB037091AC038FBF8091EB
:1019C000290590912A05A0912B05B0912C05481B63
:1019D000590B6A0B7B0B8091350590913605B0E071
:1019E000A0E084179507A607B70708F013C1C0E069
:1019F00080913305C81760F4E0912F05F091300510
:101A0000EC0FF11D62E080810E94CA04CF5FF0CF2D
:101A1000912C80913405981608F05FC0092D10E0D4
:101A2000E0913105F0913205E00FF11F61E0808116
:101A30000E94CA04E0913105F0913205E00FF11FD8
:101A400060E080810E945D04D301C201092C04C0C2
:101A5000880F991FAA1FBB1F0A94D2F75C017C0153
:101A6000E094F094812C809133058816F8F4C82D09
:101A7000D0E0E0912F05F0913005EC0FFD1F808143
:101A80000E9434042496CC0FDD1FC353DB4F892BF7
:101A900041F4888199818A299B2999838883839439
:101AA000E2CF888199818E219F21F7CFE091310586
:101AB000F0913205E00FF11F61E080810E945D042A
:101AC0008091310590913205080F191F60E0F801EF
:101AD00080810E94CA0493949CCFCDECD4E08E0107
:101AE000F801878D90A1892B31F4148E8FEF9FEF31
:101AF000968F858F11A20A5F1F4FE9E0F5E0E0178E
:101B0000F10771F7F12C80913305F81608F053C0F6
:101B1000E12CAF2CB12CAA0CBB1CC5018B529B4FE6
:101B20005C0120913405E21608F043C0F5016081A4
:101B300071810E2C02C0769567950A94E2F7F29EA9
:101B4000900111242E0D311DEDECF4E080E0458D67
:101B5000568D2417350709F4DEC18F5F36968A301B
:101B6000B1F760FF24C0EDECF4E090E080E0448D3C
:101B7000411118C0E0912D05F0912E05E20FF31FE1
:101B8000408156E0589FF001599FF00D1124E35316
:101B9000FB4F448F368F258F10A2178E61E00E9475
:101BA000A70105C0019636968A30910501F7E394A6
:101BB000B8CFF394A8CF80E099A19111892F2696F0
:101BC0000C171D07C9F79FB7F8944091A9035091CE
:101BD000AA036091AB037091AC039FBF40932905AA
:101BE00050932A0560932B0570932C05882391F060
:101BF0008091EE04882371F0C091EC04D091ED0443
:101C0000C130D10539F4F090E904F11006C00E940A
:101C10009C03C7CE10923905FACF63E080E00E94A2
:101C20009C0741E06F2D82E694E00E9485078AE2DE
:101C3000F8122EC0D0925A04C092590430925C041B
:101C400020925B04E7E0F0E0F0935E04E0935D0433
:101C500081E08093580410926104D0935704C0939C
:101C60005604D092C804C092C7043092CA0420928D
:101C7000C904F093CC04E093CB0447E050E065E066
:101C800070E083E090E00E94FE060E941908BFCF3A
:101C900080915604909157048130910509F049C014
:101CA000F2E4FF16D9F023E4F21621F151E4F51223
:101CB0002FC08091590490915A041816190644F5C2
:101CC0001092600410925F0482E090E090935704B9
:101CD000809356048F2D0E94280899CF20915B0491
:101CE00030915C04121613069CF490936004809368
:101CF0005F04EACF80915D0490915E041816190686
:101D00003CF482E090E09093600480935F04DECF27
:101D100062E080E00E949C0781EA92E00E94E7076F
:101D20006CED75E080E090E00E942B050E940908B0
:101D30006ECF029709F06BCFCF2D0F2C000CDD0B6F
:101D40008E01005311096F2D89EB93E00E9425034A
:101D500042E050E066EB72E089EB93E00E94680598
:101D6000E197279790F480915F0490916004880F29
:101D7000991FFC01EA5AFB4F238134814091610491
:101D8000411116C020173107B4F4C0915F04CF5B36
:101D900062E080E00E949C0785ED92E00E94E707E8
:101DA0006CED75E080E090E00E942B058C2F93CFC6
:101DB0000217130754F78A5A9B4F201B310BFC0163
:101DC00034832383C0915904D0915A0400915B0459
:101DD00010915C04CE01800F911FE0905D04F090A3
:101DE0005E048E0D9F1D019709F06FC0D0925704BD
:101DF000C092560423E0A22EB12C83E0882E912CB1
:101E0000A701B801CE010E94FE066EE571E080E0F8
:101E100090E00E942B054091CB045091CC0460913E
:101E2000C9047091CA048091C7049091C8040E94AB
:101E3000FE066EE571E080E090E00E942B0591E0E7
:101E4000891A9108E9F6D093C804C093C704109387
:101E5000CA040093C904F092CC04E092CB04A70119
:101E6000B801CE010E94FE0680915804882309F42F
:101E700050C081E30E94F407E3E0AE16B10409F01C
:101E800055CF80915804C1E3811101C0C2E30E9483
:101E9000CE0760E080E00E949C0787E792E00E9406
:101EA000E7078C2F0E94F40761E089E00E949C07FD
:101EB00089EB92E00E94E70762E080E00E949C07C5
:101EC00081EC92E00E94E707A2CE31E020E020976B
:101ED00009F030E0832F922F0115110509F40196C6
:101EE000E114F10409F4019602971CF081E080935B
:101EF000610481E090E090935704809356048091B0
:101F0000580491E0892780935804AA24A394B12C03
:101F100074CF82E3AFCF617042CEEE0FFF1F881FF8
:0E1F20008BBF0790F691E02D1994F894FFCF37
:101F2E0005040302090807063132334134353642BF
:101F3E00373839432A30234400004000140054003F
:101F4E000000000097026A027D0640026302500202
:101F5E0041020000000025036805C6027203F70265
:101F6E00D502E90200000000E10768057D067C0647
:101F7E00000000005D0561056505504C4159455254
:101F8E00200043686F6F73652070696C652028416F
:101F9E002C422C43293A002A2A2A2A204E696D20E7
:101FAE0047616D652121202A2A2A2A0023206F6687
:101FBE00207069656365732066726F6D20003A202C
:101FCE00004E6F7420612076616C69642070696CBC
:101FDE006521202020000D0A0057494E5320212153
:101FEE00005072657373202A20746F2072657374AB
:101FFE006172743A004E6F7420612076616C696470
:0A200E00206E756D626572212000DE
:00000001FF
