:100000000C9446010C9477010C9477010C947701C1
:100010000C9477010C9477010C9477010C94770180
:100020000C9477010C9477010C9477010C94770170
:100030000C9477010C94E20A0C9477010C947701EC
:100040000C9477010C9477010C9477010C94770150
:100050000C9477010C9477010C9477010C94980A16
:100060000C9477010C9477010C9477010C94770130
:100070000C9477010C9477010C9477010C94770120
:100080000C9477010C9477010C9477010C94770110
:100090000C9477010C9477010C9477010C947409FB
:1000A0000C9477010C9477010C9477010C947701F0
:1000B0000C9477010C9477010C9477010C947701E0
:1000C0000C9477010C9477010C9477010C947701D0
:1000D0000C9477010C9477010C9477010C947701C0
:1000E0000C9477010C941E030C9410030C940203DF
:1000F0000C9460070C94DC040C94E4040C946902E6
:100100000C94E9020C94FB050C94E3020C94F502A8
:100110000C94810B0C9462020C9416030C94400214
:100120000C940C030C94F1020C9424030C9408031B
:100130000C94FE020C943D020C943F020C943E027F
:100140000C94E0040C94F8020C9423030C94280300
:100150000C94E7040C9496020C94FC050C941A037E
:100160000C944F020C94ED020200002100240027A1
:10017000002A002D003000330001010000040107B7
:10018000010A0100002200250028002B002E00316A
:1001900000340002010000050108010B01000020ED
:1001A000002300260029002C002F0032000001004F
:1001B00000030106010901050505050705080808F2
:1001C00008020202020A0A080804040404010101E8
:1001D00001010101010303030303030303040707F0
:1001E000070C0C0C0C0C0C0C0C020202020606068E
:1001F00006060606060B0B0B0B0B0B0B0B01021076
:100200002020080810204010204080020102010830
:1002100004020101020408102040808040201008E0
:100220000402018004020180402010080402010839
:100230000402010102040810204080010204081099
:1002400020408000000A0B02090C0D0E0807030471
:10025000010000000000000000000000000000009D
:10026000000000000000000000000000000000127C
:10027000111000000000000000000000000000005D
:1002800000000000000000000000810B11241FBED0
:10029000CFEFD1E2DEBFCDBF00E00CBF14E0A0E0A5
:1002A000B2E0E2E0FEE200E00BBF02C007900D9278
:1002B000AC31B107D9F726E0ACE1B4E001C01D9242
:1002C000AC34B207E1F711E0C6E4D1E000E006C0CB
:1002D00021970109802FFE010E94F016C534D10735
:1002E00080E00807A9F70E94BB0C0C94FF160C9441
:1002F0000000880F991FFC01E45FFA4F8781908509
:10030000861B970B90878783E0911305F091140566
:100310004091150550911605CF01840F951F20912E
:10032000170530911805820F931F019739F486E065
:1003300090E09093110580931005089571E060E0BE
:10034000EF2B09F070E0872F962F452B09F40196CB
:10035000232B09F4019602971CF081E080931B0582
:1003600084E090E090931105809310058091120530
:1003700091E089278093120584E090E008959C0124
:10038000260F371F240F351F21303105A1F0813092
:10039000910531F46130710519F44130510559F07E
:1003A0002230310531F06827792781E0641775071D
:1003B00009F080E0089581E0089580911205909100
:1003C0000C05992361F090910D05992321F0882364
:1003D00041F083E408958823E1F381E308958111D6
:1003E000FCCF82E3089596E0899FD0011124A352A7
:1003F000BA4F90967C936E935F9791E091969C9301
:100400009197E0914A06F0914B0690914906992305
:1004100039F0309751F0811108C08091F905199495
:10042000309719F05C968C91FACF08952091B4041E
:10043000260F3327331F21323105ECF42091DA04E3
:10044000FC0190E080E0243069F082E00895A09102
:10045000B4042191AC014E565B4FA40FB52FB11DD2
:100460002C930196861798F38091B404680F6093DB
:10047000B40480E0089581E00895089508950895F2
:10048000E091890480918804E81730F4F0E0E8599D
:10049000FB4F808190E008958FEF9FEF089590913A
:1004A0008904809188042FEF3FEF981748F4E92FD3
:1004B000F0E0E859FB4F208130E09F5F9093890482
:1004C000C90108958091880490918904891B990B32
:1004D0000895CF92DF92EF92FF920F931F93CF93E5
:1004E000DF937C01CB018A0120916704222389F0EC
:1004F000EB016B01C40ED51ECC15DD0569F06991C9
:10050000D701ED91FC910190F081E02DC701199583
:10051000F3CF642F0E941602C801DF91CF911F9183
:100520000F91FF90EF90DF90CF900895CF93DF93DE
:100530001F92CDB7DEB76983209167042223F9F0BB
:1005400020918A04203258F021E030E0FC0133830E
:10055000228390E080E00F90DF91CF910895809109
:100560008B04E82FF0E0E95BFB4F998190838F5F6C
:1005700080938B0480938A0481E090E0ECCF61E06B
:10058000CE0101960E941602F7CF8150823108F009
:100590005AC0E82FF0E08827EF52FD4F8F4F0C94A0
:1005A000F016F102F502E302E902ED022303F8027C
:1005B000FE02020308030C03100316031A032303AD
:1005C0001E0324032803809180008F77809380008E
:1005D0000895809180008F7DF9CF80918000877F82
:1005E000F5CF84B58F7784BD089584B58F7DFBCF1B
:1005F0008091B0008F778093B00008958091B00013
:100600008F7DF9CF809190008F778093900008952F
:10061000809190008F7DF9CF80919000877FF5CFFA
:100620008091A0008F778093A00008958091A00012
:100630008F7DF9CF8091A000877FF5CF8091200139
:100640008F77809320010895809120018F7DF9CFCD
:1006500080912001877FF5CFCF93DF93282F30E063
:10066000F901ED5BFD4F8491F901E350FE4FD49108
:10067000F901E954FE4FC491CC23A1F081110E94ED
:10068000C502EC2FF0E0EE0FFF1FE356FE4FA591E1
:10069000B491EC91ED2381E090E009F480E0DF91EA
:1006A000CF91089580E090E0FACF1F93CF93DF932E
:1006B000282F30E0F901ED5BFD4F8491F901E35003
:1006C000FE4FD491F901E954FE4FC491CC23A9F017
:1006D000162F81110E94C502EC2FF0E0EE0FFF1FD4
:1006E000ED57FE4FA591B4918FB7F894EC9111118D
:1006F00008C0D095DE23DC938FBFDF91CF911F918F
:100700000895DE2BF8CF1092DA0481E08093DC04A8
:100710001092DB0461E084E10E94550361E085E111
:100720000E945503E9EBF0E080818E7F8083808119
:100730008D7F808388E48093B80085E48093BC003B
:100740000895CF93DF9391E0909391048823B9F0BB
:10075000C091B800D091BA008091BC008A7B809390
:10076000BC0060E084E10E94550360E085E10E94E6
:1007700055030E948303D093BA00C093B800DF9161
:10078000CF910895CF93DF9390E0FC01E350FE4FAB
:10079000249189549E4FFC0184918823C9F090E0F4
:1007A000880F991FFC01E759FE4FA591B491FC01F8
:1007B000ED57FE4FC591D49161110DC09FB7F894CC
:1007C0008C91209582238C938881282328839FBF36
:1007D000DF91CF910895623051F49FB7F8943C9126
:1007E000822F809583238C93E8812E2BEFCF8FB7B8
:1007F000F894EC912E2B2C938FBFEACF3FB7F8944F
:100800008091430490914404A0914504B091460422
:1008100026B5A89B05C02F3F19F00196A11DB11D5B
:100820003FBFBA2FA92F982F8827BC01CD01620F97
:10083000711D811D911D42E0660F771F881F991F52
:100840004A95D1F708958F929F92AF92BF92CF921F
:10085000DF92EF92FF924B015C010E94FE036B015D
:100860007C010E94FE036C197D098E099F09683E78
:10087000734081059105A8F321E0821A9108A1082F
:10088000B10888EEC80E83E0D81EE11CF11C81146B
:100890009104A104B10429F7FF90EF90DF90CF906D
:1008A000BF90AF909F908F9008952FB7F89460916C
:1008B0003F047091400480914104909142042FBF05
:1008C00008950F931F93CF93DF938C01EB010E9448
:1008D0005504ECE1F5E063AF74AF85AF96AF11ABB3
:1008E00000ABD3ABC2AB12AE11AE15AA16AA17AAB3
:1008F00010AE81E084ABDF91CF911F910F910895ED
:100900000F931F93CF93DF93C82FD62F86E0C89FF6
:10091000F0011124E352FA4F11A2878D90A181308A
:100920009105F1F058F082309105F1F1039709F447
:1009300040C0DF91CF911F910F9108956623C9F3B5
:1009400061E070E08C2F0E94F3010E9455046093D7
:100950003506709336068093370690933806E9CFB4
:100960000E945504009135061091360620913706F5
:1009700030913806AB01BC01401B510B620B730B6D
:100980008091470690914806B0E0A0E08417950753
:10099000A607B70748F462E070E08C2FDF91CF9193
:1009A0001F910F910C94F30163E070E0D111C1CF5E
:1009B000F4CF70E060E0F1CF862F642F0C94C20377
:1009C000862F642F0C945503862F0C942C03AF9222
:1009D000BF92CF92DF92EF92FF920F931F93CF932C
:1009E000DF936C017B018B01040F151FEB015E018E
:1009F000AE18BF08C017D10759F06991D601ED9123
:100A0000FC910190F081E02DC6011995892B79F7B1
:100A1000C501DF91CF911F910F91FF90EF90DF9073
:100A2000CF90BF90AF900895CF92DF92EF92FF9258
:100A30000F931F93CF93DF93FC01C48121E0209398
:100A40006704C0931C0410928B0410928A0484855E
:100A5000682B80E095E00E949602D0918A04D13202
:100A600008F092C00E94FE036B017C018091DA04C1
:100A7000811165C082E08093DA0481E08093DC0418
:100A80008FEF8093D9041092FE04D093FD04A7E465
:100A9000B4E0EDEDF4E080E0D81385C01092FF04DF
:100AA0008091FF04CC0FC82BC093FF048091DB041E
:100AB000813009F07CC01092DB040E94FE036B01C0
:100AC0007C018091FF048093BB0080918D04909104
:100AD0008E04A0918F04B0919004892B8A2B8B2BCC
:100AE00099F00E94FE0300918D0410918E042091D4
:100AF0008F04309190046C197D098E099F090617A7
:100B0000170728073907E0F18091BC0083FDD9CF92
:100B100085EC8093BC000E94FE036B017C018091F8
:100B2000DA04823009F445C08091D9048F3F61F125
:100B30008091D904803241F18091D90425C08091FF
:100B40008D0490918E04A0918F04B0919004892B14
:100B50008A2B8B2B09F48ACF0E94FE0300918D040F
:100B600010918E0420918F04309190046C197D09AE
:100B70008E099F09061717072807390708F076CF4F
:100B800080918C040E94A10310928B0410928A041D
:100B900010926704DF91CF911F910F91FF90EF901A
:100BA000DF90CF9008959D9191938F5F75CF85EEE3
:100BB000B0CF80918D0490918E04A0918F04B0915C
:100BC0009004892B8A2B8B2B09F4A9CF0E94FE035A
:100BD00000918D0410918E0420918F043091900427
:100BE0006C197D098E099F09061717072807390711
:100BF00008F095CFC5CF089590E080E00895CF929A
:100C0000DF92EF92FF920F931F93CF93DF931F9288
:100C10001F92CDB7DEB769834A83880F991F009171
:100C2000C7051091C805000F111FE1E7F5E09F010E
:100C3000215735402017310714F41192F8CF29813C
:100C4000FC01EF58FA4F21838A81808360E0809114
:100C5000C5050E9455031016110604F5015011092F
:100C6000F801EF58FA4FE080D090C305C090C1055D
:100C700088E0F82E6E2D661F6627661F8C2D0E9459
:100C80005503EE0C61E08D2D0E94550360E08D2D23
:100C90000E945503FA94F110EDCFDDCF61E0809111
:100CA000C5050F900F90DF91CF911F910F91FF908D
:100CB000EF90DF90CF900C945503EF92FF920F933B
:100CC0001F93CF937C018C0183E0000F111F8A9545
:100CD000E1F70F571A4FC1E0F80111928F0140E080
:100CE0006C2FC7010E94FF05CF5FC930A9F7CF91D4
:100CF0001F910F91FF90EF9008956F927F928F92C6
:100D00009F92AF92BF92CF92DF92EF92FF920F939A
:100D10001F93CF93DF938C017B016A01912C812C6F
:100D200080E8A82EB12CC501082C02C095958795A6
:100D30000A94E2F7682E782E7094D0E0C0E080919B
:100D4000C7059091C805C230D1051CF480169106E4
:100D5000C4F09E01235031092230310560F48E1415
:100D60009F047CF018161906DCF4FE01EF58FA4FC8
:100D7000408947210EC0C630D105A4F38C149D04D0
:100D80008CF71816190664F4FE01EF58FA4F4089E3
:100D90004629408B6C2F6F5F90E080E00E94FF053A
:100DA0002196C830D10559F68FEF881A980A88E045
:100DB0008816910409F0B7CFDF91CF911F910F9161
:100DC000FF90EF90DF90CF90BF90AF909F908F906B
:100DD0007F906F9008950F931F93CF938C01C62F30
:100DE0000E9414056C2F6460C8010E9414056C2FCA
:100DF0006B7FC8010E94140583EC90E00197F1F726
:100E0000CF911F910F9108950F931F93CF93DF936D
:100E10008C01D62FC42F607F642B0E94EB0680E1EB
:100E2000D89FB00111246C2BC801DF91CF911F9185
:100E30000F910C94EB06CF93DF9300D000D01F925C
:100E40001F92CDB7DEB798E0EDE8F2E0DE01119633
:100E500001900D929A95E1F790916305961710F421
:100E60006FEF690F262F30E0220F331F41E050E073
:100E70004C0F5D1F240F351FF9016081680F6068FA
:100E800040E08BE595E028960FB6F894DEBF0FBEE4
:100E9000CDBFDF91CF910C94040740E061E08BE57A
:100EA00095E00E9404078BE39FE10197F1F78091A1
:100EB0006405882321F060E080E00C941B0708950E
:100EC00041E00E94040781E090E008958F929F9294
:100ED000AF92BF92CF92DF92EF92FF92CF93DF93C8
:100EE00093E0892E912CA12CB12C0E943516A501DE
:100EF00094010E948D16EB01660F771F645F7A4F95
:100F0000FB01C780D084C114D10479F380911B0503
:100F1000811120C00D2C000CEE08FF08C114D10473
:100F2000E104F10439F00E943516A70196010E94F0
:100F30008D166B01B6016F5F7F4FCE01DF91CF91B0
:100F4000FF90EF90DF90CF90BF90AF909F908F90E9
:100F50000C947901F1E0CF1AD10860E070E0CB0188
:100F600051F30E9435169601DD0C440B550B0E947F
:100F70008D16E1CF6F927F928F929F92AF92BF9228
:100F8000CF92DF92EF92FF920F931F93CF93DF9355
:100F90000091170510911805E0901505F0901605C1
:100FA000C0901305D0901405A801B701C6010E9496
:100FB000BF01882339F133E0C32ED12CE12CF12C71
:100FC0000E943516A70196010E948D16CB01FB01E8
:100FD000EE0FFF1FE45FFA4F27813085232B81F34B
:100FE00061E070E0DF91CF911F910F91FF90EF9042
:100FF000DF90CF90BF90AF909F908F907F906F9039
:101000000C94790193E1A92E95E0B92ED0E0C0E0CF
:10101000F501619071905F0188248394912C68148C
:101020007904ECF0A801209759F4B701C60188199A
:1010300099090E94BF01882371F0B401CE01D2CF7B
:10104000B70168197909C130D10519F04819590952
:10105000B701C601EECFFFEF8F1A9F0AE0CF2196AE
:10106000C330D105A9F6DF91CF911F910F91FF9069
:10107000EF90DF90CF90BF90AF909F908F907F9038
:101080006F900895FC0101900020E9F73197AF01BE
:10109000481B590BBC018BE595E00C94E7040E94BA
:1010A0004D0760E080E00E941B0787EE92E00C9401
:1010B000420861E080E00E941B0780916D05833447
:1010C00061F48CEF92E00E94420861E088E00E94A7
:1010D0001B0785E193E00C94420885E093E00E94B1
:1010E000420861E087E00E941B0741E060916D05C6
:1010F0008BE595E00E940407E8CF0F931F93CF93F1
:10110000DF938C0161E080E00E941B078DE093E09B
:101110000E944208CBE5D5E01C8B0B8B81E0898BCC
:101120000E9455046D877E878F87988BDF91CF91C2
:101130001F910F9108950E944F0861E080E00E9486
:101140001B078DE193E00E94420862E080E00E946C
:101150001B0781E393E00E94420863E080E00E9465
:101160001B078AEB93E00C9442080E944F0861E051
:1011700080E00E941B0782E493E00E94420862E044
:1011800080E00E941B0787E593E00E94420863E02D
:1011900080E00E941B078AEB93E00C9442080E94B7
:1011A0004F0861E080E00E941B0789E693E00E94FF
:1011B000420862E080E00E941B0788E793E00E94FB
:1011C000420863E080E00E941B078AEB93E00C94E6
:1011D00042080E94590862E080E00E941B0785E8EF
:1011E00093E00E94420863E080E00E941B078AEBC4
:1011F00093E00C944208CF93C82F62E080E00E94F5
:101200001B078AE993E00E94420862E081E10E94A4
:101210001B0741E06C2F8BE595E00E94040762E01C
:1012200082E10E941B078CEA93E00E94420863E07F
:1012300080E00E941B078AEB93E0CF910C94420858
:101240000E944D0760E080E00E941B0787EE92E05D
:101250000E9442080E94590861E088E00E941B0732
:101260008FEA93E00E94420862E080E00E941B0740
:101270008CEB93E00C94420885ED8093BC00809148
:101280008D0490918E04A0918F04B09190040796E4
:10129000A11DB11D23E0B695A795979587952A9531
:1012A000D1F72091BC0024FD03C01092DA04089508
:1012B00040918D0450918E0460918F047091900440
:1012C000452B462B472B69F30097A105B10541F04B
:1012D0002AE22A95F1F700C00197A109B109E1CFEF
:1012E00080918C040C94A1031F920F920FB60F9261
:1012F00011240BB60F922F933F934F935F936F93ED
:101300007F938F939F93AF93BF93EF93FF938091BE
:10131000B900887F803609F44DC008F040C088329B
:1013200009F4A9C028F5803109F49DC0C8F48823C8
:1013300009F4FBC0883009F496C0FF91EF91BF918A
:10134000AF919F918F917F916F915F914F913F915D
:101350002F910F900BBE0F900FBE0F901F901895FE
:10136000883109F488C0803241F78093D90414C0D1
:10137000803409F49DC040F48033B9F38833E9F632
:101380008093D90485ECB0C0803509F485C08835D8
:1013900009F496C0883489F60E943C09CECF88397A
:1013A00009F48CC038F5883729F050F4883611F0EC
:1013B000803719F683E08093DA041092D80457C07E
:1013C000883809F47BC0803919F0803809F0B5CF2E
:1013D0008091D804803208F071C0E091D80481E097
:1013E0008E0F8093D8048091BB00F0E0E854FB4F4F
:1013F00080833DC0803B39F0E0F4803A09F479C045
:10140000883A09F09ACF84E08093DA041092B50408
:101410001092B404E091B204F091B3041995809154
:10142000B40481110FC081E08093B404109292043F
:1014300009C0803C09F4A6CF883C09F4A3CF883BBF
:1014400009F07BCFE091B50481E08E0F8093B50465
:10145000F0E0EE56FB4F80818093BB009091B50485
:101460008091B40429C08091FF048093BB0085EC77
:101470008093BC0062CF9091FE048091FD04981788
:1014800058F5E091FE0481E08E0F8093FE04F0E0B9
:10149000E352FB4F8081E9CFE091FE0481E08E0FA3
:1014A0008093FE048091BB00F0E0E352FB4F808309
:1014B0009091FE048091FD049817C8F285E8D8CF7A
:1014C000E091FE0481E08E0F8093FE048091BB00CA
:1014D000F0E0E352FB4F80838091DC0481115CCF0C
:1014E00081E08093DB0484EA8093BC001092DA04EC
:1014F00024CF85EC8093BC001092DA048091D8044C
:10150000803230F4E091D804F0E0E854FB4F1082D0
:101510006091D80470E0E091B604F091B70488EBD4
:1015200094E019951092D80408CF1092D90434CFC2
:101530001F920F920FB60F9211242F933F938F9308
:101540009F93AF93BF9380913F0490914004A091EB
:101550004104B091420430913E0423E0230F2D3723
:1015600058F50196A11DB11D20933E0480933F04C0
:1015700090934004A0934104B093420480914304AB
:1015800090914404A0914504B09146040196A11D98
:10159000B11D8093430490934404A0934504B093F9
:1015A0004604BF91AF919F918F913F912F910F90E2
:1015B0000FBE0F901F90189526E8230F0296A11DCD
:1015C000B11DD2CF1F920F920FB60F9211240BB6FE
:1015D0000F922F933F934F935F936F937F938F93CC
:1015E0009F93AF93BF93EF93FF93809131049091BA
:1015F0003204A0913304B0913404892B8A2B8B2BB5
:10160000E1F190912004E0912104F0912204808185
:10161000892780838091310490913204A091330412
:10162000B0913404181619061A061B069CF4809112
:10163000310490913204A0913304B09134040197A5
:10164000A109B1098093310490933204A09333042B
:10165000B0933404FF91EF91BF91AF919F918F911F
:101660007F916F915F914F913F912F910F900BBEA2
:101670000F900FBE0F901F90189580910002E8E622
:10168000F1E0E4919FEF90930002E230E9F040F442
:10169000EE2389F0E13091F060E00E945503DACF4B
:1016A000E43049F110F1E530B9F7909173009D7F76
:1016B00090937300F1CF10926E00EECF90916F0077
:1016C0009D7F90936F00E8CF909170009D7F9093E5
:1016D000700091E09093B0009091B100987F946079
:1016E0009093B1001092B300D7CF909171009D7F7D
:1016F00090937100D1CF909172009D7F9093720072
:10170000CBCFCF93DF93109203051092020588EEA2
:1017100093E0A0E0B0E08093040590930505A093CA
:101720000605B093070583EC92E090930105809342
:1017300000051092DF051092E3051092E205109269
:10174000E40581EE92E09093DE058093DD05E9EFFC
:10175000F5E085E396E010821482138215823696B6
:101760008E179F07C1F785E792E09093400680931C
:101770003F0681E792E0909342068093410684E021
:10178000809343068093440689E792E090933E0657
:1017900080933D06CAE0D0E0D0934606C09345064C
:1017A00084EF91E0909348068093470610924B0691
:1017B00010924A061092390610923A0610923B0691
:1017C00010923C0610924906D093C205C093C10501
:1017D0008CE090E09093C4058093C3058BE090E08B
:1017E0009093C6058093C50581E090E09093C8056D
:1017F0008093C70561E08AE00E94C20361E08091A6
:10180000C3050E94C20361E08091C5050E94C20326
:1018100061E08091C5050E945503D093C205C09335
:10182000C105E1E8F5E081EC95E011928E179F0784
:10183000E1F7D0E0C0E08091C7059091C805C817D6
:10184000D90774F540E06FE0CE010E94FF0580915A
:10185000C7059091C805C817D9072CF447E06BE07D
:10186000CE010E94FF0540E069E0CE010E94FF0525
:101870008091C7059091C805C817D9071CF4CE01FF
:101880000E945D068091C7059091C805C817D907C9
:101890002CF440E06CE0CE010E94FF052196CBCFF6
:1018A0001092D6051092D50510925E0510925D0536
:1018B00085ED92E090935C0580935B051092640542
:1018C00087E280935F0584E18093650584E08093DF
:1018D00066051092670582E890E090931F0580935B
:1018E0001E058EE090E09093210580932005E5E9A8
:1018F000F2E0A2E2B5E001900D928A95E1F78CE169
:10190000E3EAF2E0A0E3B5E001900D928A95E1F7F9
:1019100010925005109251051092520510925305E5
:101920001092540585E390E090931D0580931C056B
:1019300061E00E94C20383E090E0909314058093DD
:10194000130585E090E0909316058093150587E0D8
:1019500090E0909318058093170581E0809312051D
:1019600010921B0581E090E0909311058093100583
:10197000DF91CF910895CF93DF9300D000D01F92D5
:101980001F92CDB7DEB7789484B5826084BD84B5EC
:10199000816084BD85B5826085BD85B5816085BD6A
:1019A00080916E00816080936E0010928100809122
:1019B00081008260809381008091810081608093AA
:1019C0008100809180008160809380008091B100CF
:1019D00084608093B1008091B00081608093B000FA
:1019E000809191008260809391008091910081604C
:1019F000809391008091900081608093900080910D
:101A0000A10082608093A1008091A10081608093F9
:101A1000A1008091A00081608093A00080912101AD
:101A20008260809321018091210181608093210156
:101A30008091200181608093200180917A008460F0
:101A400080937A0080917A00826080937A008091FE
:101A50007A00816080937A0080917A008068809318
:101A60007A001092C100109289041092880410929A
:101A70008B0410928A040E9483038DE392E090937A
:101A8000B3048093B2048EE392E09093B704809302
:101A9000B6041092600580916605823018F098E0D7
:101AA000909360058093630562E370E080E090E0CE
:101AB0000E942304609167058BE595E00E94140560
:101AC00068EE73E080E090E00E94230460E38BE521
:101AD00095E00E94EB068BE496E40197F1F760E352
:101AE0008BE595E00E94EB062BE436E4C9010197F3
:101AF000F1F760E38BE595E00E94EB0683E592E069
:101B00000197F1F760E28BE595E00E94EB066091AA
:101B10006005606240E08BE595E00E94040784E088
:101B20008093610540E06CE08BE595E00E9404073E
:101B30000E944D0782E08093620540E066E08BE5FD
:101B400095E00E94040740E062E08BE595E00E948A
:101B500004078BE39FE10197F1F788E08093670525
:101B600060E08BE595E00E94140510926C050E94E0
:101B70004F080E949B088091C7059091C8051816D0
:101B8000190634F441E06CE090E080E00E94FF052B
:101B90008091C7059091C8051816190634F448E0DD
:101BA0006AE090E080E00E94FF058091C705909177
:101BB000C8051816190624F490E080E00E945D061E
:101BC0004091170550911805609115057091160503
:101BD00080911305909114059093CA058093C905CF
:101BE0007093CC056093CB055093CE054093CD0503
:101BF0000E947D0610923D046DE272E08BE392E05C
:101C00000E94610481E0809349060E94550400917E
:101C1000390610913A0620913B0630913C06AB0103
:101C2000BC01401B510B620B730B809145069091D8
:101C30004606B0E0A0E084179507A607B70708F0AE
:101C400099C21982809143069981981770F4E091A6
:101C50003F06F0914006E90FF11D62E080810E948D
:101C6000C203E981EF5FE983EDCFB12C8091440697
:101C7000B81608F076C00B2D10E0E0914106F09107
:101C80004206E00FF11F61E080810E94C203E091F3
:101C90004106F0914206E00FF11F60E080810E9452
:101CA000550381E090E0A0E0B0E00B2C04C0880F69
:101CB000991FAA1FBB1F0A94D2F76C017C01E09404
:101CC000F094A12C80914306A816A0F52A2D30E0AF
:101CD0003B832A8380913F0690914006F9018E0F45
:101CE0009F1FFC0180810E942C032A813B812C5F75
:101CF0003F4F3B832A83892B79F4220F331F2352D2
:101D00003A4F3B832A83F901808191818C299D2957
:101D100091838083A394D6CF2A813B81220F331FE6
:101D200023523A4F3B832A83F901808191818E218E
:101D30009F21EECFE0914106F0914206E00FF11FA6
:101D400061E080810E945503809141069091420696
:101D5000080F191F60E0F80180810E94C203B3944C
:101D600085CF6DEDC62E65E0D62EDB82CA82EA8174
:101D7000FB81878D90A1892B31F4148E2FEF3FEFDB
:101D8000368F258F11A28A819B8106969B838A8339
:101D9000E9E1F6E0E817F90751F710E056E0B52E53
:101DA00080914306181708F052C000E0E12EF12C94
:101DB000EE0CFF1C97012B513A4F790120914406FC
:101DC000021708F042C0F70160817181002E02C045
:101DD000769567950A94E2F7129F90011124200FDF
:101DE000311DEDEDF5E080E0458D568D241735076A
:101DF00009F4EDC68F5F36968A30B1F760FF23C0D5
:101E0000EDEDF5E090E080E0448D411117C0E091E8
:101E10003D06F0913E06E20FF31F6081B89EF0018F
:101E2000B99EF00D1124E352FA4F648F368F258F3F
:101E300010A2178E61E00E94800405C001963696BC
:101E40008A30910509F70F5FB9CF1F5FA9CF10E066
:101E5000F60181A18111182FF6E0CF0ED11C2A8145
:101E60003B812C153D05A1F70E945504609339066E
:101E700070933A0680933B0690933C06112309F435
:101E800079C18091FE05882309F474C18091FC0515
:101E90009091FD05019709F06DC13091F9053887E2
:101EA0008091D5059091D605892B09F495C10E94A2
:101EB00055040091D9051091DA052091DB05309188
:101EC000DC05601B710B820B930B6F357140810534
:101ED000910508F483C10E9455046093D90570935D
:101EE000DA058093DB059093DC058091D70590910E
:101EF000D8058D7F009709F041C14091D3055091DD
:101F0000D4056091D1057091D2058091CF05909153
:101F1000D0050E947D068091D7059091D805019645
:101F20009093D8058093D705F1E0F98330916C0543
:101F30003E83332331F10E945504009168051091CE
:101F4000690520916A0530916B05601B710B820B4E
:101F5000930B6D3D75408105910598F010926C05CD
:101F600080916E0590916F058330910509F449C108
:101F70000CF037C18130910509F43DC1029709F495
:101F80003DC180915005882309F48CC080914C0597
:101F900090914D052091550530915605820F931F64
:101FA000FC018081882309F43DC40E9455040091FE
:101FB0005705109158052091590530915A05601B1D
:101FC000710B820B930B00915105109152052091DA
:101FD000530530915405061717072807390708F0ED
:101FE00061C08091550590915605AC01440F551F75
:101FF00020914E0530914F05240F351FF901408186
:10200000518120911E0530911F05429F1001439F71
:10201000300C529F300C112420914C0530914D050D
:10202000820F931FFC0120812101032C000C660804
:1020300077082032E1F0E2E2F5E090E080E03191D3
:102040002313EAC0880F991FFC01E05DFA4F00815D
:10205000118180911C0590911D0520910002E8E6F8
:10206000F1E02813E1C024912F8327FF3CC1409267
:10207000510550925205609253057092540580911B
:1020800055059091560501969093560580935505F8
:102090000E94550460935705709358058093590525
:1020A00090935A05F981F1115DC02E8121115AC01A
:1020B00080913D04882309F4D5C30E944F08809184
:1020C0000E0590910F058230910509F0AEC30E9474
:1020D000BA079B838A830091170510911805E09039
:1020E0001505F0901605C0901305D09014050E94B8
:1020F00055046093D9057093DA058093DB059093BE
:10210000DC0581E090E09093D6058093D505D092D0
:10211000D005C092CF05F092D205E092D105109380
:10212000D4050093D3051092D8051092D7050E94CC
:10213000DD0180936D0561E672E08BE692E00E941E
:1021400061048A819B81069709F087C386E090E04D
:102150000E947D0868E472E088E592E00E946104D4
:1021600010923D0480E090E0892B09F44BCD0E9451
:10217000000048CD10924906188692CE019769F466
:102180004091CD055091CE056091CB057091CC0565
:102190008091C9059091CA05BCCE4091D30550915C
:1021A000D4056091D1057091D2058091CF059091B1
:1021B000D0059093CA058093C9057093CC056093B0
:1021C000CB055093CE054093CD050E947D0610921D
:1021D000D6051092D5059FCE1982A8CE21E029837D
:1021E000A5CE8530910599F07CF0069709F0C9CE0F
:1021F0000E942009C6CE0E949B08C3CE0E94B5084B
:10220000C0CE0E94CF08BDCE0E94E908BACE809110
:1022100070050E94FB08B5CE01968E30910509F03D
:102220000ECF10E000E015CF2F3F09F020CF8093B4
:10223000000234913F83232F3F3F09F418CF3230FF
:1022400009F42DC158F4332399F1313009F405C153
:1022500027FD0DCF61E00E94C2034BC0EF81E43047
:1022600009F467C108F441C1E53091F710922001EB
:1022700010922101209121012860209321012091B9
:1022800021012160209321019C013327F901E954A8
:10229000FE4FE491F0E0EE0FFF1FED57FE4F45912A
:1022A0005491F901E350FE4FE491E0931D041BC0EB
:1022B00014BC15BC24B5226024BD25B5216025BD04
:1022C0009C013327F901E954FE4FE491F0E0EE0F51
:1022D000FF1FED57FE4F45915491F901E350FE4F1A
:1022E000E491E093240461E00E94C2032F81222341
:1022F00021F03F81323009F0BBC14801B12CA12C43
:1023000060E072E18AE790E0A50198010E948D16D5
:102310002A833B834C835D8369017A0181E0C81A7B
:10232000D108E108F1089FEFC916D104E104F104D6
:1023300009F00CF46CC160E472E48FE090E0A50158
:1023400098010E948D1669017A01E1E0CE1AD10848
:10235000E108F108FF81F23009F00DC182E02FEFB2
:10236000C216D104E104F10409F00CF46FC060E975
:1023700070ED83E090E0A50198010E948D1669013F
:102380007A0181E0C81AD108E108F10883E09FEFE3
:10239000C916D104E104F10409F00CF457C068E453
:1023A00078EE81E090E0A50198010E948D16690108
:1023B0007A0181E0C81AD108E108F10884E09FEFB2
:1023C000C916D104E104F10409F00CF43FC064E241
:1023D00074EF80E090E0A50194010E948D166901E0
:1023E0007A0181E0C81AD108E108F10885E03FEFE1
:1023F000C316D104E104F10449F140F162E17AE746
:1024000080E090E0A50194010E948D1669017A0197
:10241000E1E0CE1AD108E108F10886E0FFEFCF161F
:10242000D104E104F10491F088F0CA80DB80EC80F3
:10243000FD809AE0F594E794D794C7949A95D1F7E4
:10244000F1E0CF1AD108E108F10887E09091B100DE
:10245000987F892B8093B100E2C010928000109287
:1024600081002091810028602093810020918100CB
:102470002160209381009C013327F901E954FE4F2C
:10248000E491F0E0EE0FFF1FED57FE4F45915491A0
:10249000F901E350FE4FE491E093230424CF10921E
:1024A000B0001092B1002091B00022602093B000E3
:1024B0002091B10021602093B1009C013327F901E4
:1024C000E954FE4FE491F0E0EE0FFF1FED57FE4F91
:1024D000459154915093220440932104F901E35013
:1024E000FE4FE491E0932004FECE109290001092F3
:1024F00091002091910028602093910020919100FB
:102500002160209391009C013327F901E954FE4F8B
:10251000E491F0E0EE0FFF1FED57FE4F459154910F
:10252000F901E350FE4FE491E0931F04F3E0FF83D1
:10253000DACE1092A0001092A1002091A100286094
:102540002093A1002091A10021602093A1009C0173
:102550003327F901E954FE4FE491F0E0EE0FFF1F3D
:10256000ED57FE4F45915491F901E350FE4FE49130
:10257000E0931E04B8CEEFEFCE16D104E104F104CF
:1025800009F00CF473C068E478EE81E090E0A501F6
:1025900098010E948D1669017A01F1E0CF1AD108E5
:1025A000E108F1082F8184E0211121CF83E02FEF92
:1025B000C216D104E104F10471F16CF162E17AE731
:1025C00080E090E0A50194010E948D1669017A01D6
:1025D00091E0C91AD108E108F10884E0EFEFCE16C6
:1025E000D104E104F104B9F0B0F0CA80DB80EC80E2
:1025F000FD808AE0F594E794D794C7948A95D1F743
:1026000021E0C21AD108E108F10885E004C081E0A8
:10261000FF81F1111BCF95B5987F892B85BD2FEFD9
:102620003FEFA901411451046104710409F049C04C
:102630009F81923009F4E6C00CF0CDC0992309F4D3
:10264000D2C0913009F013CDD0928900C092880099
:102650002093350430933604409337045093380464
:1026600080916F00826080936F0001CD82E0D0CFB7
:10267000B12CA12C60E072E18AE790E0A5019801FD
:102680000E948D1669017A0181E0C81AD108E1081B
:10269000F108C114D10491E0E906F104FCF491E0E1
:1026A000FF81F13061F580918100887F892B8093D3
:1026B00081002FEF3FEFA90141145104610471041F
:1026C00019F29801220F331FD1010E94F81628EE4B
:1026D00033E040E050E00E94BF16AACF68E478EEF5
:1026E00081E090E0A50198010E948D1669017A01B0
:1026F000E1E0CE1AD108E108F10893E0D1CF2F81B3
:10270000233001F580919100887F892B809391007F
:102710002FEF3FEFA901411451046104710489F6C0
:10272000D0929900C092980020932D0430932E04EB
:1027300040932F0450933004809171008260809305
:10274000710095CC3F81343009F58091A100887FDC
:10275000892B8093A1002FEF3FEFA9014114510471
:102760006104710409F0ADCFD092A900C092A80015
:102770002093290430932A0440932B0450932C0473
:102780008091720082608093720071CC8F8185305D
:1027900009F045CF80912101887F892B8093210109
:1027A0002FEF3FEFA901411451046104710409F0B6
:1027B00088CFD0922901C09228012093250430931C
:1027C000260440932704509328048091730082606C
:1027D000809373004CCCEF81E43031F20CF4A0CF45
:1027E000E53039F344CCC7BC2093390430933A0424
:1027F00040933B0450933C0480916E008260809330
:102800006E0035CCC092B300209331043093320473
:10281000409333045093340480917000826080931D
:10282000700025CC109250053DCC019799F4809111
:102830001305909114052091150530911605820F0E
:10284000931F2091170530911805820F931F06974B
:102850000CF43DCC0E9466073CCC84E090E00E94E2
:102860007D087ECC9885992309F47CCC63E080E0D8
:102870000E941B0741E068858BE595E00E940407F4
:1028800064E472E086E492E00E946104E885EA3242
:10289000E1F543E050E0509314054093130525E023
:1028A00030E0309316052093150587E090E0909373
:1028B00018058093170561E06093120510921B05BF
:1028C00061E070E070931105609310055093CA05A4
:1028D0004093C9053093CC052093CB059093CE054A
:1028E0008093CD0547E050E065E070E083E090E044
:1028F0000E947D060E944F080E949B086DE272E0D4
:102900008BE392E00E9461042DCC009110051091A0
:1029100011050130110509F043C0F885F13489F43F
:1029200010920C0584E090E09093110580931005BF
:102930000E944F080E94DD0180936D050E94E90806
:1029400011CC2885223461F481E080930C0582E06B
:1029500090E090931105809310050E94B50802CC79
:102960000E944F0862E080E00E941B0780ED93E028
:102970000E94420810936F0500936E0581E08093DA
:102980006C050E94550460936805709369058093F7
:102990006A0590936B0563E272E089E292E0B2CF40
:1029A00002301105F9F488858053833090F438851E
:1029B000832F330F990BC09790930F0580930E05CB
:1029C00083E090E090931105809310050E94CF085A
:1029D000C9CB0E944F0862E080E00E941B0783EE93
:1029E00093E0C6CF0330110531F58885813419F4A1
:1029F00010920D0597CF9885923461F481E0809311
:102A00000D0524E030E030931105209310058093EC
:102A10003D04A8CB0E944F0862E080E00E941B07A3
:102A200080ED93E00E94420883E090E090936F0570
:102A300080936E05A3CF0430110509F03FC0E885EF
:102A4000E234C9F0E33429F1E13469F580911305EA
:102A5000909114051816190634F510921A05109263
:102A6000190585E090E09093110580931005888505
:102A70000E94FB0877CB80911505909116051816DA
:102A800019068CF481E090E090931A058093190563
:102A9000E8CF8091170590911805181619061CF4B7
:102AA00082E090E0F1CF62E080E00E941B0782EFBD
:102AB00093E00E94420884E090E0B8CF0530110511
:102AC00009F050CBF8852F2FFF0F330BB90160535E
:102AD00071098091190590911A0521533109273008
:102AE000310570F4FC01EE0FFF1FE45FFA4F278100
:102AF000308540911B05411119C026173707CCF4CA
:102B0000909119059F5B998362E080E00E941B070A
:102B100087E094E00E94420885E090E090936F0582
:102B200080936E05E981E093700528CF62177307E3
:102B30003CF70E9479019B838A83019609F30091F7
:102B4000170510911805E0901505F0901605C09036
:102B50001305D09014050E9455046093D905709315
:102B6000DA058093DB059093DC0581E090E090939B
:102B7000D6058093D505D092D005C092CF05F092AE
:102B8000D205E092D1051093D4050093D30510929D
:102B9000D8051092D7050E94DD0180936D0561E68E
:102BA00072E08BE692E00E9461048A819B81069725
:102BB00039F40E94200961E072E087E192E0A2CE40
:102BC00080910C05882309F4B9CE81E020CF617093
:102BD00032C98F929F92AF92BF92CF92DF92EF92C3
:102BE000FF92CF93DF93EC01688179818A819B8189
:102BF000611571058105910521F464E279ED8BE59C
:102C000097E02DE133EF41E050E00E948D1649013D
:102C10005A019B01AC01A7EAB1E40E94AC166B011A
:102C20007C01ACEEB4EFA50194010E94BA16C60E69
:102C3000D71EE81EF91EF7FE06C081E0C81AD108AB
:102C4000E10880E8F80AC882D982EA82FB82C701DB
:102C5000B6019F77DF91CF91FF90EF90DF90CF90FB
:102C6000BF90AF909F908F9008958F929F92AF9258
:102C7000BF92CF92DF92EF92FF92609189027091A2
:102C80008A0280918B0290918C02611571058105F9
:102C9000910521F464E279ED8BE597E02DE133EFC6
:102CA00041E050E00E948D1649015A019B01AC01A0
:102CB000A7EAB1E40E94AC166B017C01ACEEB4EF64
:102CC000A50194010E94BA16C60ED71EE81EF91E71
:102CD000F7FE06C081E0C81AD108E10880E8F80ACA
:102CE000C0928902D0928A02E0928B02F0928C020A
:102CF000C701B6019F77FF90EF90DF90CF90BF9014
:102D0000AF909F908F9008956093890270938A028C
:102D100080938B0290938C020895052E97FB1EF4EE
:102D200000940E94A41657FD07D00E94BF1607FC0E
:102D300003D04EF40C94A4165095409530952195EF
:102D40003F4F4F4F5F4F08959095809570956195D7
:102D50007F4F8F4F9F4F08950E94E116A59F900DC2
:102D6000B49F900DA49F800D911D11240895B7FF6D
:102D70000C94AC160E94AC16821B930B0895A1E232
:102D80001A2EAA1BBB1BFD010DC0AA1FBB1FEE1FE5
:102D9000FF1FA217B307E407F50720F0A21BB30B30
:102DA000E40BF50B661F771F881F991F1A9469F7AC
:102DB00060957095809590959B01AC01BD01CF0108
:102DC0000895A29FB001B39FC001A39F700D811D04
:102DD0001124911DB29F700D811D1124911D089524
:102DE000EE0FFF1F881F8BBF0790F691E02D1994FF
:102DF0000E94E116B7FF0895821B930B0895F89483
:022E0000FFCF02
:102E0200FF010001000100010001000100010001B9
:102E120000010001000100636465206465662065AD
:102E220066670001000100010064206400010001E6
:102E320000010001000100010001006365672063D9
:102E4200656700000100620001000100010001004D
:102E5200010001000200020041464745464420436A
:102E620000020002000200020002006320632067E9
:102E720000050403020908070631323341343536AE
:102E820042373839432A3023440100000000004011
:102E9200001400540043444546474142636465665A
:102EA20067616282009200A400AE00C400DC00F6FA
:102EB20000050126014A015D018801B801ED01000A
:102EC20000000096026902FC053F0262024F0240C6
:102ED20002000000006007E704FC05FB050000009B
:102EE20000DC04E004E4042A2A2A2A204E696D2028
:102EF20047616D652121202A2A2A2A00434F4D501D
:102F02005554455200504C415945522000434F4DB3
:102F120050555445522773205455524E0041202D8E
:102F22003E203220706C61796572732067616D6535
:102F32000042202D3E20767320636F6D707574659C
:102F4200720053656C656374206C6576656C20282D
:102F5200302D4561737900312D4D656469756D20A1
:102F6200322D48617264293A0041202D3E20596F6A
:102F7200752073746172740042202D3E20492073C3
:102F8200746172740043686F6F73652070696C6559
:102F92002028412C422C43293A0023206F662070BE
:102FA20069656365732066726F6D20003A200020A8
:102FB20057494E5320212120202020005072657352
:102FC20073202A20746F20726573746172743A00E0
:102FD200496E76616C69642073656C656374696FB0
:102FE2006E2100496E76616C6964206C6576656C51
:102FF20021004E6F7420612076616C6964207069D3
:103002006C6521202020004E6F7420612076616C57
:0C3012006964206E756D626572212000FB
:00000001FF
